{"contracts/Mint.sol":{"Mint":{"abi":[{"inputs":[],"stateMutability":"nonpayable","type":"constructor"},{"inputs":[],"name":"MAX_SUPPLY","outputs":[{"internalType":"uint256","name":"","type":"uint256"}],"stateMutability":"view","type":"function"},{"inputs":[],"name":"deployer","outputs":[{"internalType":"address","name":"","type":"address"}],"stateMutability":"view","type":"function"},{"inputs":[],"name":"minimumBuffer","outputs":[{"internalType":"uint256","name":"","type":"uint256"}],"stateMutability":"view","type":"function"},{"inputs":[],"name":"mint","outputs":[],"stateMutability":"payable","type":"function"},{"inputs":[],"name":"publicMintOpens","outputs":[{"internalType":"uint256","name":"","type":"uint256"}],"stateMutability":"view","type":"function"},{"inputs":[{"internalType":"uint256","name":"unixDate","type":"uint256"}],"name":"setMintOpenDate","outputs":[],"stateMutability":"nonpayable","type":"function"},{"inputs":[],"name":"totalSupply","outputs":[{"internalType":"uint256","name":"","type":"uint256"}],"stateMutability":"view","type":"function"}],"evm":{"bytecode":{"linkReferences":{},"object":"60806040526201518060045534801561001757600080fd5b50600380546001600160a01b0319163317905561051a806100396000396000f3fe6080604052600436106100705760003560e01c806332cb6b0c1161004e57806332cb6b0c146100be57806396cd8c03146100d3578063b2bd20ec146100e9578063d5f394881461010957600080fd5b80630405ee9f146100755780631249c58b1461009e57806318160ddd146100a8575b600080fd5b34801561008157600080fd5b5061008b60045481565b6040519081526020015b60405180910390f35b6100a661015b565b005b3480156100b457600080fd5b5061008b60005481565b3480156100ca57600080fd5b5061008b609681565b3480156100df57600080fd5b5061008b60015481565b3480156100f557600080fd5b506100a661010436600461046c565b61037a565b34801561011557600080fd5b506003546101369073ffffffffffffffffffffffffffffffffffffffff1681565b60405173ffffffffffffffffffffffffffffffffffffffff9091168152602001610095565b6096600054106101cc576040517f08c379a000000000000000000000000000000000000000000000000000000000815260206004820152600e60248201527f737570706c79207573656420757000000000000000000000000000000000000060448201526064015b60405180910390fd5b3360009081526002602052604090205460ff1615610246576040517f08c379a000000000000000000000000000000000000000000000000000000000815260206004820152601260248201527f796f7520616c7265616479206d696e746564000000000000000000000000000060448201526064016101c3565b3466f8b0a10e470000146102b6576040517f08c379a000000000000000000000000000000000000000000000000000000000815260206004820152600b60248201527f77726f6e6720707269636500000000000000000000000000000000000000000060448201526064016101c3565b600154158015906102c8575060015442115b61032e576040517f08c379a000000000000000000000000000000000000000000000000000000000815260206004820152601460248201527f7075626c6963206d696e74206e6f74206f70656e00000000000000000000000060448201526064016101c3565b33600090815260026020526040812080547fffffffffffffffffffffffffffffffffffffffffffffffffffffffffffffff001660011790558054908061037383610485565b9190505550565b60035473ffffffffffffffffffffffffffffffffffffffff1633146103fb576040517f08c379a000000000000000000000000000000000000000000000000000000000815260206004820152600d60248201527f6f6e6c79206465706c6f7965720000000000000000000000000000000000000060448201526064016101c3565b600454811015610467576040517f08c379a000000000000000000000000000000000000000000000000000000000815260206004820152601160248201527f6e6f7420656e6f7567682062756666657200000000000000000000000000000060448201526064016101c3565b600155565b60006020828403121561047e57600080fd5b5035919050565b60007fffffffffffffffffffffffffffffffffffffffffffffffffffffffffffffffff82036104dd577f4e487b7100000000000000000000000000000000000000000000000000000000600052601160045260246000fd5b506001019056fea2646970667358221220cb995365eda495df39ee4b8b2795582e5692cdfc791661fe09141017920659e764736f6c634300080f0033","opcodes":"PUSH1 0x80 PUSH1 0x40 MSTORE PUSH3 0x15180 PUSH1 0x4 SSTORE CALLVALUE DUP1 ISZERO PUSH2 0x17 JUMPI PUSH1 0x0 DUP1 REVERT JUMPDEST POP PUSH1 0x3 DUP1 SLOAD PUSH1 0x1 PUSH1 0x1 PUSH1 0xA0 SHL SUB NOT AND CALLER OR SWAP1 SSTORE PUSH2 0x51A DUP1 PUSH2 0x39 PUSH1 0x0 CODECOPY PUSH1 0x0 RETURN INVALID PUSH1 0x80 PUSH1 0x40 MSTORE PUSH1 0x4 CALLDATASIZE LT PUSH2 0x70 JUMPI PUSH1 0x0 CALLDATALOAD PUSH1 0xE0 SHR DUP1 PUSH4 0x32CB6B0C GT PUSH2 0x4E JUMPI DUP1 PUSH4 0x32CB6B0C EQ PUSH2 0xBE JUMPI DUP1 PUSH4 0x96CD8C03 EQ PUSH2 0xD3 JUMPI DUP1 PUSH4 0xB2BD20EC EQ PUSH2 0xE9 JUMPI DUP1 PUSH4 0xD5F39488 EQ PUSH2 0x109 JUMPI PUSH1 0x0 DUP1 REVERT JUMPDEST DUP1 PUSH4 0x405EE9F EQ PUSH2 0x75 JUMPI DUP1 PUSH4 0x1249C58B EQ PUSH2 0x9E JUMPI DUP1 PUSH4 0x18160DDD EQ PUSH2 0xA8 JUMPI JUMPDEST PUSH1 0x0 DUP1 REVERT JUMPDEST CALLVALUE DUP1 ISZERO PUSH2 0x81 JUMPI PUSH1 0x0 DUP1 REVERT JUMPDEST POP PUSH2 0x8B PUSH1 0x4 SLOAD DUP2 JUMP JUMPDEST PUSH1 0x40 MLOAD SWAP1 DUP2 MSTORE PUSH1 0x20 ADD JUMPDEST PUSH1 0x40 MLOAD DUP1 SWAP2 SUB SWAP1 RETURN JUMPDEST PUSH2 0xA6 PUSH2 0x15B JUMP JUMPDEST STOP JUMPDEST CALLVALUE DUP1 ISZERO PUSH2 0xB4 JUMPI PUSH1 0x0 DUP1 REVERT JUMPDEST POP PUSH2 0x8B PUSH1 0x0 SLOAD DUP2 JUMP JUMPDEST CALLVALUE DUP1 ISZERO PUSH2 0xCA JUMPI PUSH1 0x0 DUP1 REVERT JUMPDEST POP PUSH2 0x8B PUSH1 0x96 DUP2 JUMP JUMPDEST CALLVALUE DUP1 ISZERO PUSH2 0xDF JUMPI PUSH1 0x0 DUP1 REVERT JUMPDEST POP PUSH2 0x8B PUSH1 0x1 SLOAD DUP2 JUMP JUMPDEST CALLVALUE DUP1 ISZERO PUSH2 0xF5 JUMPI PUSH1 0x0 DUP1 REVERT JUMPDEST POP PUSH2 0xA6 PUSH2 0x104 CALLDATASIZE PUSH1 0x4 PUSH2 0x46C JUMP JUMPDEST PUSH2 0x37A JUMP JUMPDEST CALLVALUE DUP1 ISZERO PUSH2 0x115 JUMPI PUSH1 0x0 DUP1 REVERT JUMPDEST POP PUSH1 0x3 SLOAD PUSH2 0x136 SWAP1 PUSH20 0xFFFFFFFFFFFFFFFFFFFFFFFFFFFFFFFFFFFFFFFF AND DUP2 JUMP JUMPDEST PUSH1 0x40 MLOAD PUSH20 0xFFFFFFFFFFFFFFFFFFFFFFFFFFFFFFFFFFFFFFFF SWAP1 SWAP2 AND DUP2 MSTORE PUSH1 0x20 ADD PUSH2 0x95 JUMP JUMPDEST PUSH1 0x96 PUSH1 0x0 SLOAD LT PUSH2 0x1CC JUMPI PUSH1 0x40 MLOAD PUSH32 0x8C379A000000000000000000000000000000000000000000000000000000000 DUP2 MSTORE PUSH1 0x20 PUSH1 0x4 DUP3 ADD MSTORE PUSH1 0xE PUSH1 0x24 DUP3 ADD MSTORE PUSH32 0x737570706C792075736564207570000000000000000000000000000000000000 PUSH1 0x44 DUP3 ADD MSTORE PUSH1 0x64 ADD JUMPDEST PUSH1 0x40 MLOAD DUP1 SWAP2 SUB SWAP1 REVERT JUMPDEST CALLER PUSH1 0x0 SWAP1 DUP2 MSTORE PUSH1 0x2 PUSH1 0x20 MSTORE PUSH1 0x40 SWAP1 KECCAK256 SLOAD PUSH1 0xFF AND ISZERO PUSH2 0x246 JUMPI PUSH1 0x40 MLOAD PUSH32 0x8C379A000000000000000000000000000000000000000000000000000000000 DUP2 MSTORE PUSH1 0x20 PUSH1 0x4 DUP3 ADD MSTORE PUSH1 0x12 PUSH1 0x24 DUP3 ADD MSTORE PUSH32 0x796F7520616C7265616479206D696E7465640000000000000000000000000000 PUSH1 0x44 DUP3 ADD MSTORE PUSH1 0x64 ADD PUSH2 0x1C3 JUMP JUMPDEST CALLVALUE PUSH7 0xF8B0A10E470000 EQ PUSH2 0x2B6 JUMPI PUSH1 0x40 MLOAD PUSH32 0x8C379A000000000000000000000000000000000000000000000000000000000 DUP2 MSTORE PUSH1 0x20 PUSH1 0x4 DUP3 ADD MSTORE PUSH1 0xB PUSH1 0x24 DUP3 ADD MSTORE PUSH32 0x77726F6E67207072696365000000000000000000000000000000000000000000 PUSH1 0x44 DUP3 ADD MSTORE PUSH1 0x64 ADD PUSH2 0x1C3 JUMP JUMPDEST PUSH1 0x1 SLOAD ISZERO DUP1 ISZERO SWAP1 PUSH2 0x2C8 JUMPI POP PUSH1 0x1 SLOAD TIMESTAMP GT JUMPDEST PUSH2 0x32E JUMPI PUSH1 0x40 MLOAD PUSH32 0x8C379A000000000000000000000000000000000000000000000000000000000 DUP2 MSTORE PUSH1 0x20 PUSH1 0x4 DUP3 ADD MSTORE PUSH1 0x14 PUSH1 0x24 DUP3 ADD MSTORE PUSH32 0x7075626C6963206D696E74206E6F74206F70656E000000000000000000000000 PUSH1 0x44 DUP3 ADD MSTORE PUSH1 0x64 ADD PUSH2 0x1C3 JUMP JUMPDEST CALLER PUSH1 0x0 SWAP1 DUP2 MSTORE PUSH1 0x2 PUSH1 0x20 MSTORE PUSH1 0x40 DUP2 KECCAK256 DUP1 SLOAD PUSH32 0xFFFFFFFFFFFFFFFFFFFFFFFFFFFFFFFFFFFFFFFFFFFFFFFFFFFFFFFFFFFFFF00 AND PUSH1 0x1 OR SWAP1 SSTORE DUP1 SLOAD SWAP1 DUP1 PUSH2 0x373 DUP4 PUSH2 0x485 JUMP JUMPDEST SWAP2 SWAP1 POP SSTORE POP JUMP JUMPDEST PUSH1 0x3 SLOAD PUSH20 0xFFFFFFFFFFFFFFFFFFFFFFFFFFFFFFFFFFFFFFFF AND CALLER EQ PUSH2 0x3FB JUMPI PUSH1 0x40 MLOAD PUSH32 0x8C379A000000000000000000000000000000000000000000000000000000000 DUP2 MSTORE PUSH1 0x20 PUSH1 0x4 DUP3 ADD MSTORE PUSH1 0xD PUSH1 0x24 DUP3 ADD MSTORE PUSH32 0x6F6E6C79206465706C6F79657200000000000000000000000000000000000000 PUSH1 0x44 DUP3 ADD MSTORE PUSH1 0x64 ADD PUSH2 0x1C3 JUMP JUMPDEST PUSH1 0x4 SLOAD DUP2 LT ISZERO PUSH2 0x467 JUMPI PUSH1 0x40 MLOAD PUSH32 0x8C379A000000000000000000000000000000000000000000000000000000000 DUP2 MSTORE PUSH1 0x20 PUSH1 0x4 DUP3 ADD MSTORE PUSH1 0x11 PUSH1 0x24 DUP3 ADD MSTORE PUSH32 0x6E6F7420656E6F75676820627566666572000000000000000000000000000000 PUSH1 0x44 DUP3 ADD MSTORE PUSH1 0x64 ADD PUSH2 0x1C3 JUMP JUMPDEST PUSH1 0x1 SSTORE JUMP JUMPDEST PUSH1 0x0 PUSH1 0x20 DUP3 DUP5 SUB SLT ISZERO PUSH2 0x47E JUMPI PUSH1 0x0 DUP1 REVERT JUMPDEST POP CALLDATALOAD SWAP2 SWAP1 POP JUMP JUMPDEST PUSH1 0x0 PUSH32 0xFFFFFFFFFFFFFFFFFFFFFFFFFFFFFFFFFFFFFFFFFFFFFFFFFFFFFFFFFFFFFFFF DUP3 SUB PUSH2 0x4DD JUMPI PUSH32 0x4E487B7100000000000000000000000000000000000000000000000000000000 PUSH1 0x0 MSTORE PUSH1 0x11 PUSH1 0x4 MSTORE PUSH1 0x24 PUSH1 0x0 REVERT JUMPDEST POP PUSH1 0x1 ADD SWAP1 JUMP INVALID LOG2 PUSH5 0x6970667358 0x22 SLT KECCAK256 0xCB SWAP10 MSTORE8 PUSH6 0xEDA495DF39EE 0x4B DUP12 0x27 SWAP6 PC 0x2E JUMP SWAP3 0xCD 0xFC PUSH26 0x1661FE09141017920659E764736F6C634300080F003300000000 "},"methodIdentifiers":{"MAX_SUPPLY()":"32cb6b0c","deployer()":"d5f39488","minimumBuffer()":"0405ee9f","mint()":"1249c58b","publicMintOpens()":"96cd8c03","setMintOpenDate(uint256)":"b2bd20ec","totalSupply()":"18160ddd"}}}}}