{"contracts/ERC165.sol":{"NFTGiver":{"abi":[{"inputs":[{"internalType":"contract ERC721","name":"awardNFT","type":"address"},{"internalType":"uint256[]","name":"_order","type":"uint256[]"}],"stateMutability":"nonpayable","type":"constructor"},{"inputs":[],"name":"GAS_LIMIT","outputs":[{"internalType":"uint256","name":"","type":"uint256"}],"stateMutability":"view","type":"function"},{"inputs":[{"internalType":"contract ERC165","name":"target","type":"address"},{"internalType":"bytes4","name":"_interface","type":"bytes4"}],"name":"_supportsInterface","outputs":[{"internalType":"bool","name":"","type":"bool"}],"stateMutability":"view","type":"function"},{"inputs":[{"internalType":"contract ERC165","name":"target","type":"address"}],"name":"challenge1","outputs":[],"stateMutability":"nonpayable","type":"function"},{"inputs":[{"internalType":"contract ERC165","name":"target","type":"address"}],"name":"challenge2","outputs":[],"stateMutability":"nonpayable","type":"function"},{"inputs":[{"internalType":"contract ERC165","name":"target","type":"address"}],"name":"challenge3","outputs":[],"stateMutability":"nonpayable","type":"function"},{"inputs":[{"internalType":"contract ERC165","name":"target","type":"address"}],"name":"challenge4","outputs":[],"stateMutability":"nonpayable","type":"function"},{"inputs":[{"internalType":"contract ERC165","name":"target","type":"address"}],"name":"success","outputs":[],"stateMutability":"nonpayable","type":"function"}],"evm":{"bytecode":{"linkReferences":{},"object":"610100604052630271189760e51b608052632229f29760e21b60a052631337133760e01b60c05263decafc0f60e01b60e0523480156200003e57600080fd5b5060405162000edc38038062000edc833981016040819052620000619162000117565b600180546001600160a01b0319166001600160a01b0384161790558051620000919060029060208401906200009a565b50505062000204565b828054828255906000526020600020908101928215620000d8579160200282015b82811115620000d8578251825591602001919060010190620000bb565b50620000e6929150620000ea565b5090565b5b80821115620000e65760008155600101620000eb565b634e487b7160e01b600052604160045260246000fd5b600080604083850312156200012b57600080fd5b82516001600160a01b03811681146200014357600080fd5b602084810151919350906001600160401b03808211156200016357600080fd5b818601915086601f8301126200017857600080fd5b8151818111156200018d576200018d62000101565b8060051b604051601f19603f83011681018181108582111715620001b557620001b562000101565b604052918252848201925083810185019189831115620001d457600080fd5b938501935b82851015620001f457845184529385019392850192620001d9565b8096505050505050509250929050565b60805160a05160c05160e051610c4a62000292600039600081816101c20152818161067c0152818161081b01526109ba01526000818161018e01528181610648015281816107e8015261098601526000818161015b01528181610614015281816107b40152610952015260008181610127015281816105e001528181610780015261091f0152610c4a6000f3fe608060405234801561001057600080fd5b506004361061007d5760003560e01c806327a828331161005b57806327a82833146100c5578063444ce9de146100e857806348881449146100fb5780635c0509f51461010e57600080fd5b8063091d2788146100825780630b8287ee1461009d57806326e4baae146100b2575b600080fd5b61008a602e81565b6040519081526020015b60405180910390f35b6100b06100ab366004610abe565b610121565b005b6100b06100c0366004610abe565b6102bf565b6100d86100d3366004610adb565b61051c565b6040519015158152602001610094565b6100b06100f6366004610abe565b6105da565b6100b0610109366004610abe565b61077a565b6100b061011c366004610abe565b610919565b61014b817f000000000000000000000000000000000000000000000000000000000000000061051c565b1561015557600080fd5b61017f817f000000000000000000000000000000000000000000000000000000000000000061051c565b61018857600080fd5b6101b2817f000000000000000000000000000000000000000000000000000000000000000061051c565b156101bc57600080fd5b6101e6817f000000000000000000000000000000000000000000000000000000000000000061051c565b156101f057600080fd5b6002805461020090600190610b39565b8154811061021057610210610b77565b906000526020600020015460021461022757600080fd5b600280548061023857610238610ba6565b6000828152602080822083017fffffffffffffffffffffffffffffffffffffffffffffffffffffffffffffffff90810183905590920190925573ffffffffffffffffffffffffffffffffffffffff9092168152908190526040902080547fffffffffffffffffffffffffffffffffffffffffffffffffffffffffffff00ff16610100179055565b73ffffffffffffffffffffffffffffffffffffffff811660009081526020819052604090205460ff166102f157600080fd5b73ffffffffffffffffffffffffffffffffffffffff8116600090815260208190526040902054610100900460ff1661032857600080fd5b73ffffffffffffffffffffffffffffffffffffffff811660009081526020819052604090205462010000900460ff1661036057600080fd5b73ffffffffffffffffffffffffffffffffffffffff81166000908152602081905260409020546301000000900460ff1661039957600080fd5b73ffffffffffffffffffffffffffffffffffffffff8181166000908152602081905260409081902080547fffffffffffffffffffffffffffffffffffffffffffffffffffffffff0000000016905560015490517f6352211e000000000000000000000000000000000000000000000000000000008152610539600482015230929190911690636352211e90602401602060405180830381865afa158015610444573d6000803e3d6000fd5b505050506040513d601f19601f820116820180604052508101906104689190610bd5565b73ffffffffffffffffffffffffffffffffffffffff161461048857600080fd5b6001546040517f23b872dd000000000000000000000000000000000000000000000000000000008152306004820152336024820152610539604482015273ffffffffffffffffffffffffffffffffffffffff909116906323b872dd90606401600060405180830381600087803b15801561050157600080fd5b505af1158015610515573d6000803e3d6000fd5b5050505050565b6040517f01ffc9a70000000000000000000000000000000000000000000000000000000081527fffffffff000000000000000000000000000000000000000000000000000000008216600482015260009073ffffffffffffffffffffffffffffffffffffffff8416906301ffc9a790602e906024016020604051808303818786fa1580156105ae573d6000803e3d6000fd5b50505050506040513d601f19601f820116820180604052508101906105d39190610bf2565b9392505050565b610604817f000000000000000000000000000000000000000000000000000000000000000061051c565b1561060e57600080fd5b610638817f000000000000000000000000000000000000000000000000000000000000000061051c565b1561064257600080fd5b61066c817f000000000000000000000000000000000000000000000000000000000000000061051c565b1561067657600080fd5b6106a0817f000000000000000000000000000000000000000000000000000000000000000061051c565b6106a957600080fd5b600280546106b990600190610b39565b815481106106c9576106c9610b77565b90600052602060002001546004146106e057600080fd5b60028054806106f1576106f1610ba6565b6000828152602080822083017fffffffffffffffffffffffffffffffffffffffffffffffffffffffffffffffff90810183905590920190925573ffffffffffffffffffffffffffffffffffffffff9092168152908190526040902080547fffffffffffffffffffffffffffffffffffffffffffffffffffffffff00ffffff166301000000179055565b6107a4817f000000000000000000000000000000000000000000000000000000000000000061051c565b156107ae57600080fd5b6107d8817f000000000000000000000000000000000000000000000000000000000000000061051c565b156107e257600080fd5b61080c817f000000000000000000000000000000000000000000000000000000000000000061051c565b61081557600080fd5b61083f817f000000000000000000000000000000000000000000000000000000000000000061051c565b1561084957600080fd5b6002805461085990600190610b39565b8154811061086957610869610b77565b906000526020600020015460031461088057600080fd5b600280548061089157610891610ba6565b6000828152602080822083017fffffffffffffffffffffffffffffffffffffffffffffffffffffffffffffffff90810183905590920190925573ffffffffffffffffffffffffffffffffffffffff9092168152908190526040902080547fffffffffffffffffffffffffffffffffffffffffffffffffffffffffff00ffff1662010000179055565b610943817f000000000000000000000000000000000000000000000000000000000000000061051c565b61094c57600080fd5b610976817f000000000000000000000000000000000000000000000000000000000000000061051c565b1561098057600080fd5b6109aa817f000000000000000000000000000000000000000000000000000000000000000061051c565b156109b457600080fd5b6109de817f000000000000000000000000000000000000000000000000000000000000000061051c565b156109e857600080fd5b73ffffffffffffffffffffffffffffffffffffffff8116600090815260208190526040902080547fffffffffffffffffffffffffffffffffffffffffffffffffffffffffffffff00166001908117909155600280549091610a4891610b39565b81548110610a5857610a58610b77565b9060005260206000200154600114610a6f57600080fd5b6002805480610a8057610a80610ba6565b6001900381819060005260206000200160009055905550565b73ffffffffffffffffffffffffffffffffffffffff81168114610abb57600080fd5b50565b600060208284031215610ad057600080fd5b81356105d381610a99565b60008060408385031215610aee57600080fd5b8235610af981610a99565b915060208301357fffffffff0000000000000000000000000000000000000000000000000000000081168114610b2e57600080fd5b809150509250929050565b600082821015610b72577f4e487b7100000000000000000000000000000000000000000000000000000000600052601160045260246000fd5b500390565b7f4e487b7100000000000000000000000000000000000000000000000000000000600052603260045260246000fd5b7f4e487b7100000000000000000000000000000000000000000000000000000000600052603160045260246000fd5b600060208284031215610be757600080fd5b81516105d381610a99565b600060208284031215610c0457600080fd5b815180151581146105d357600080fdfea2646970667358221220fe44f6e893bfa5183b10c00bd1c87214bc4a87b820389b0bf7ac5497fb8b862b64736f6c634300080f0033","opcodes":"PUSH2 0x100 PUSH1 0x40 MSTORE PUSH4 0x2711897 PUSH1 0xE5 SHL PUSH1 0x80 MSTORE PUSH4 0x2229F297 PUSH1 0xE2 SHL PUSH1 0xA0 MSTORE PUSH4 0x13371337 PUSH1 0xE0 SHL PUSH1 0xC0 MSTORE PUSH4 0xDECAFC0F PUSH1 0xE0 SHL PUSH1 0xE0 MSTORE CALLVALUE DUP1 ISZERO PUSH3 0x3E JUMPI PUSH1 0x0 DUP1 REVERT JUMPDEST POP PUSH1 0x40 MLOAD PUSH3 0xEDC CODESIZE SUB DUP1 PUSH3 0xEDC DUP4 CODECOPY DUP2 ADD PUSH1 0x40 DUP2 SWAP1 MSTORE PUSH3 0x61 SWAP2 PUSH3 0x117 JUMP JUMPDEST PUSH1 0x1 DUP1 SLOAD PUSH1 0x1 PUSH1 0x1 PUSH1 0xA0 SHL SUB NOT AND PUSH1 0x1 PUSH1 0x1 PUSH1 0xA0 SHL SUB DUP5 AND OR SWAP1 SSTORE DUP1 MLOAD PUSH3 0x91 SWAP1 PUSH1 0x2 SWAP1 PUSH1 0x20 DUP5 ADD SWAP1 PUSH3 0x9A JUMP JUMPDEST POP POP POP PUSH3 0x204 JUMP JUMPDEST DUP3 DUP1 SLOAD DUP3 DUP3 SSTORE SWAP1 PUSH1 0x0 MSTORE PUSH1 0x20 PUSH1 0x0 KECCAK256 SWAP1 DUP2 ADD SWAP3 DUP3 ISZERO PUSH3 0xD8 JUMPI SWAP2 PUSH1 0x20 MUL DUP3 ADD JUMPDEST DUP3 DUP2 GT ISZERO PUSH3 0xD8 JUMPI DUP3 MLOAD DUP3 SSTORE SWAP2 PUSH1 0x20 ADD SWAP2 SWAP1 PUSH1 0x1 ADD SWAP1 PUSH3 0xBB JUMP JUMPDEST POP PUSH3 0xE6 SWAP3 SWAP2 POP PUSH3 0xEA JUMP JUMPDEST POP SWAP1 JUMP JUMPDEST JUMPDEST DUP1 DUP3 GT ISZERO PUSH3 0xE6 JUMPI PUSH1 0x0 DUP2 SSTORE PUSH1 0x1 ADD PUSH3 0xEB JUMP JUMPDEST PUSH4 0x4E487B71 PUSH1 0xE0 SHL PUSH1 0x0 MSTORE PUSH1 0x41 PUSH1 0x4 MSTORE PUSH1 0x24 PUSH1 0x0 REVERT JUMPDEST PUSH1 0x0 DUP1 PUSH1 0x40 DUP4 DUP6 SUB SLT ISZERO PUSH3 0x12B JUMPI PUSH1 0x0 DUP1 REVERT JUMPDEST DUP3 MLOAD PUSH1 0x1 PUSH1 0x1 PUSH1 0xA0 SHL SUB DUP2 AND DUP2 EQ PUSH3 0x143 JUMPI PUSH1 0x0 DUP1 REVERT JUMPDEST PUSH1 0x20 DUP5 DUP2 ADD MLOAD SWAP2 SWAP4 POP SWAP1 PUSH1 0x1 PUSH1 0x1 PUSH1 0x40 SHL SUB DUP1 DUP3 GT ISZERO PUSH3 0x163 JUMPI PUSH1 0x0 DUP1 REVERT JUMPDEST DUP2 DUP7 ADD SWAP2 POP DUP7 PUSH1 0x1F DUP4 ADD SLT PUSH3 0x178 JUMPI PUSH1 0x0 DUP1 REVERT JUMPDEST DUP2 MLOAD DUP2 DUP2 GT ISZERO PUSH3 0x18D JUMPI PUSH3 0x18D PUSH3 0x101 JUMP JUMPDEST DUP1 PUSH1 0x5 SHL PUSH1 0x40 MLOAD PUSH1 0x1F NOT PUSH1 0x3F DUP4 ADD AND DUP2 ADD DUP2 DUP2 LT DUP6 DUP3 GT OR ISZERO PUSH3 0x1B5 JUMPI PUSH3 0x1B5 PUSH3 0x101 JUMP JUMPDEST PUSH1 0x40 MSTORE SWAP2 DUP3 MSTORE DUP5 DUP3 ADD SWAP3 POP DUP4 DUP2 ADD DUP6 ADD SWAP2 DUP10 DUP4 GT ISZERO PUSH3 0x1D4 JUMPI PUSH1 0x0 DUP1 REVERT JUMPDEST SWAP4 DUP6 ADD SWAP4 JUMPDEST DUP3 DUP6 LT ISZERO PUSH3 0x1F4 JUMPI DUP5 MLOAD DUP5 MSTORE SWAP4 DUP6 ADD SWAP4 SWAP3 DUP6 ADD SWAP3 PUSH3 0x1D9 JUMP JUMPDEST DUP1 SWAP7 POP POP POP POP POP POP POP SWAP3 POP SWAP3 SWAP1 POP JUMP JUMPDEST PUSH1 0x80 MLOAD PUSH1 0xA0 MLOAD PUSH1 0xC0 MLOAD PUSH1 0xE0 MLOAD PUSH2 0xC4A PUSH3 0x292 PUSH1 0x0 CODECOPY PUSH1 0x0 DUP2 DUP2 PUSH2 0x1C2 ADD MSTORE DUP2 DUP2 PUSH2 0x67C ADD MSTORE DUP2 DUP2 PUSH2 0x81B ADD MSTORE PUSH2 0x9BA ADD MSTORE PUSH1 0x0 DUP2 DUP2 PUSH2 0x18E ADD MSTORE DUP2 DUP2 PUSH2 0x648 ADD MSTORE DUP2 DUP2 PUSH2 0x7E8 ADD MSTORE PUSH2 0x986 ADD MSTORE PUSH1 0x0 DUP2 DUP2 PUSH2 0x15B ADD MSTORE DUP2 DUP2 PUSH2 0x614 ADD MSTORE DUP2 DUP2 PUSH2 0x7B4 ADD MSTORE PUSH2 0x952 ADD MSTORE PUSH1 0x0 DUP2 DUP2 PUSH2 0x127 ADD MSTORE DUP2 DUP2 PUSH2 0x5E0 ADD MSTORE DUP2 DUP2 PUSH2 0x780 ADD MSTORE PUSH2 0x91F ADD MSTORE PUSH2 0xC4A PUSH1 0x0 RETURN INVALID PUSH1 0x80 PUSH1 0x40 MSTORE CALLVALUE DUP1 ISZERO PUSH2 0x10 JUMPI PUSH1 0x0 DUP1 REVERT JUMPDEST POP PUSH1 0x4 CALLDATASIZE LT PUSH2 0x7D JUMPI PUSH1 0x0 CALLDATALOAD PUSH1 0xE0 SHR DUP1 PUSH4 0x27A82833 GT PUSH2 0x5B JUMPI DUP1 PUSH4 0x27A82833 EQ PUSH2 0xC5 JUMPI DUP1 PUSH4 0x444CE9DE EQ PUSH2 0xE8 JUMPI DUP1 PUSH4 0x48881449 EQ PUSH2 0xFB JUMPI DUP1 PUSH4 0x5C0509F5 EQ PUSH2 0x10E JUMPI PUSH1 0x0 DUP1 REVERT JUMPDEST DUP1 PUSH4 0x91D2788 EQ PUSH2 0x82 JUMPI DUP1 PUSH4 0xB8287EE EQ PUSH2 0x9D JUMPI DUP1 PUSH4 0x26E4BAAE EQ PUSH2 0xB2 JUMPI JUMPDEST PUSH1 0x0 DUP1 REVERT JUMPDEST PUSH2 0x8A PUSH1 0x2E DUP2 JUMP JUMPDEST PUSH1 0x40 MLOAD SWAP1 DUP2 MSTORE PUSH1 0x20 ADD JUMPDEST PUSH1 0x40 MLOAD DUP1 SWAP2 SUB SWAP1 RETURN JUMPDEST PUSH2 0xB0 PUSH2 0xAB CALLDATASIZE PUSH1 0x4 PUSH2 0xABE JUMP JUMPDEST PUSH2 0x121 JUMP JUMPDEST STOP JUMPDEST PUSH2 0xB0 PUSH2 0xC0 CALLDATASIZE PUSH1 0x4 PUSH2 0xABE JUMP JUMPDEST PUSH2 0x2BF JUMP JUMPDEST PUSH2 0xD8 PUSH2 0xD3 CALLDATASIZE PUSH1 0x4 PUSH2 0xADB JUMP JUMPDEST PUSH2 0x51C JUMP JUMPDEST PUSH1 0x40 MLOAD SWAP1 ISZERO ISZERO DUP2 MSTORE PUSH1 0x20 ADD PUSH2 0x94 JUMP JUMPDEST PUSH2 0xB0 PUSH2 0xF6 CALLDATASIZE PUSH1 0x4 PUSH2 0xABE JUMP JUMPDEST PUSH2 0x5DA JUMP JUMPDEST PUSH2 0xB0 PUSH2 0x109 CALLDATASIZE PUSH1 0x4 PUSH2 0xABE JUMP JUMPDEST PUSH2 0x77A JUMP JUMPDEST PUSH2 0xB0 PUSH2 0x11C CALLDATASIZE PUSH1 0x4 PUSH2 0xABE JUMP JUMPDEST PUSH2 0x919 JUMP JUMPDEST PUSH2 0x14B DUP2 PUSH32 0x0 PUSH2 0x51C JUMP JUMPDEST ISZERO PUSH2 0x155 JUMPI PUSH1 0x0 DUP1 REVERT JUMPDEST PUSH2 0x17F DUP2 PUSH32 0x0 PUSH2 0x51C JUMP JUMPDEST PUSH2 0x188 JUMPI PUSH1 0x0 DUP1 REVERT JUMPDEST PUSH2 0x1B2 DUP2 PUSH32 0x0 PUSH2 0x51C JUMP JUMPDEST ISZERO PUSH2 0x1BC JUMPI PUSH1 0x0 DUP1 REVERT JUMPDEST PUSH2 0x1E6 DUP2 PUSH32 0x0 PUSH2 0x51C JUMP JUMPDEST ISZERO PUSH2 0x1F0 JUMPI PUSH1 0x0 DUP1 REVERT JUMPDEST PUSH1 0x2 DUP1 SLOAD PUSH2 0x200 SWAP1 PUSH1 0x1 SWAP1 PUSH2 0xB39 JUMP JUMPDEST DUP2 SLOAD DUP2 LT PUSH2 0x210 JUMPI PUSH2 0x210 PUSH2 0xB77 JUMP JUMPDEST SWAP1 PUSH1 0x0 MSTORE PUSH1 0x20 PUSH1 0x0 KECCAK256 ADD SLOAD PUSH1 0x2 EQ PUSH2 0x227 JUMPI PUSH1 0x0 DUP1 REVERT JUMPDEST PUSH1 0x2 DUP1 SLOAD DUP1 PUSH2 0x238 JUMPI PUSH2 0x238 PUSH2 0xBA6 JUMP JUMPDEST PUSH1 0x0 DUP3 DUP2 MSTORE PUSH1 0x20 DUP1 DUP3 KECCAK256 DUP4 ADD PUSH32 0xFFFFFFFFFFFFFFFFFFFFFFFFFFFFFFFFFFFFFFFFFFFFFFFFFFFFFFFFFFFFFFFF SWAP1 DUP2 ADD DUP4 SWAP1 SSTORE SWAP1 SWAP3 ADD SWAP1 SWAP3 SSTORE PUSH20 0xFFFFFFFFFFFFFFFFFFFFFFFFFFFFFFFFFFFFFFFF SWAP1 SWAP3 AND DUP2 MSTORE SWAP1 DUP2 SWAP1 MSTORE PUSH1 0x40 SWAP1 KECCAK256 DUP1 SLOAD PUSH32 0xFFFFFFFFFFFFFFFFFFFFFFFFFFFFFFFFFFFFFFFFFFFFFFFFFFFFFFFFFFFF00FF AND PUSH2 0x100 OR SWAP1 SSTORE JUMP JUMPDEST PUSH20 0xFFFFFFFFFFFFFFFFFFFFFFFFFFFFFFFFFFFFFFFF DUP2 AND PUSH1 0x0 SWAP1 DUP2 MSTORE PUSH1 0x20 DUP2 SWAP1 MSTORE PUSH1 0x40 SWAP1 KECCAK256 SLOAD PUSH1 0xFF AND PUSH2 0x2F1 JUMPI PUSH1 0x0 DUP1 REVERT JUMPDEST PUSH20 0xFFFFFFFFFFFFFFFFFFFFFFFFFFFFFFFFFFFFFFFF DUP2 AND PUSH1 0x0 SWAP1 DUP2 MSTORE PUSH1 0x20 DUP2 SWAP1 MSTORE PUSH1 0x40 SWAP1 KECCAK256 SLOAD PUSH2 0x100 SWAP1 DIV PUSH1 0xFF AND PUSH2 0x328 JUMPI PUSH1 0x0 DUP1 REVERT JUMPDEST PUSH20 0xFFFFFFFFFFFFFFFFFFFFFFFFFFFFFFFFFFFFFFFF DUP2 AND PUSH1 0x0 SWAP1 DUP2 MSTORE PUSH1 0x20 DUP2 SWAP1 MSTORE PUSH1 0x40 SWAP1 KECCAK256 SLOAD PUSH3 0x10000 SWAP1 DIV PUSH1 0xFF AND PUSH2 0x360 JUMPI PUSH1 0x0 DUP1 REVERT JUMPDEST PUSH20 0xFFFFFFFFFFFFFFFFFFFFFFFFFFFFFFFFFFFFFFFF DUP2 AND PUSH1 0x0 SWAP1 DUP2 MSTORE PUSH1 0x20 DUP2 SWAP1 MSTORE PUSH1 0x40 SWAP1 KECCAK256 SLOAD PUSH4 0x1000000 SWAP1 DIV PUSH1 0xFF AND PUSH2 0x399 JUMPI PUSH1 0x0 DUP1 REVERT JUMPDEST PUSH20 0xFFFFFFFFFFFFFFFFFFFFFFFFFFFFFFFFFFFFFFFF DUP2 DUP2 AND PUSH1 0x0 SWAP1 DUP2 MSTORE PUSH1 0x20 DUP2 SWAP1 MSTORE PUSH1 0x40 SWAP1 DUP2 SWAP1 KECCAK256 DUP1 SLOAD PUSH32 0xFFFFFFFFFFFFFFFFFFFFFFFFFFFFFFFFFFFFFFFFFFFFFFFFFFFFFFFF00000000 AND SWAP1 SSTORE PUSH1 0x1 SLOAD SWAP1 MLOAD PUSH32 0x6352211E00000000000000000000000000000000000000000000000000000000 DUP2 MSTORE PUSH2 0x539 PUSH1 0x4 DUP3 ADD MSTORE ADDRESS SWAP3 SWAP2 SWAP1 SWAP2 AND SWAP1 PUSH4 0x6352211E SWAP1 PUSH1 0x24 ADD PUSH1 0x20 PUSH1 0x40 MLOAD DUP1 DUP4 SUB DUP2 DUP7 GAS STATICCALL ISZERO DUP1 ISZERO PUSH2 0x444 JUMPI RETURNDATASIZE PUSH1 0x0 DUP1 RETURNDATACOPY RETURNDATASIZE PUSH1 0x0 REVERT JUMPDEST POP POP POP POP PUSH1 0x40 MLOAD RETURNDATASIZE PUSH1 0x1F NOT PUSH1 0x1F DUP3 ADD AND DUP3 ADD DUP1 PUSH1 0x40 MSTORE POP DUP2 ADD SWAP1 PUSH2 0x468 SWAP2 SWAP1 PUSH2 0xBD5 JUMP JUMPDEST PUSH20 0xFFFFFFFFFFFFFFFFFFFFFFFFFFFFFFFFFFFFFFFF AND EQ PUSH2 0x488 JUMPI PUSH1 0x0 DUP1 REVERT JUMPDEST PUSH1 0x1 SLOAD PUSH1 0x40 MLOAD PUSH32 0x23B872DD00000000000000000000000000000000000000000000000000000000 DUP2 MSTORE ADDRESS PUSH1 0x4 DUP3 ADD MSTORE CALLER PUSH1 0x24 DUP3 ADD MSTORE PUSH2 0x539 PUSH1 0x44 DUP3 ADD MSTORE PUSH20 0xFFFFFFFFFFFFFFFFFFFFFFFFFFFFFFFFFFFFFFFF SWAP1 SWAP2 AND SWAP1 PUSH4 0x23B872DD SWAP1 PUSH1 0x64 ADD PUSH1 0x0 PUSH1 0x40 MLOAD DUP1 DUP4 SUB DUP2 PUSH1 0x0 DUP8 DUP1 EXTCODESIZE ISZERO DUP1 ISZERO PUSH2 0x501 JUMPI PUSH1 0x0 DUP1 REVERT JUMPDEST POP GAS CALL ISZERO DUP1 ISZERO PUSH2 0x515 JUMPI RETURNDATASIZE PUSH1 0x0 DUP1 RETURNDATACOPY RETURNDATASIZE PUSH1 0x0 REVERT JUMPDEST POP POP POP POP POP JUMP JUMPDEST PUSH1 0x40 MLOAD PUSH32 0x1FFC9A700000000000000000000000000000000000000000000000000000000 DUP2 MSTORE PUSH32 0xFFFFFFFF00000000000000000000000000000000000000000000000000000000 DUP3 AND PUSH1 0x4 DUP3 ADD MSTORE PUSH1 0x0 SWAP1 PUSH20 0xFFFFFFFFFFFFFFFFFFFFFFFFFFFFFFFFFFFFFFFF DUP5 AND SWAP1 PUSH4 0x1FFC9A7 SWAP1 PUSH1 0x2E SWAP1 PUSH1 0x24 ADD PUSH1 0x20 PUSH1 0x40 MLOAD DUP1 DUP4 SUB DUP2 DUP8 DUP7 STATICCALL ISZERO DUP1 ISZERO PUSH2 0x5AE JUMPI RETURNDATASIZE PUSH1 0x0 DUP1 RETURNDATACOPY RETURNDATASIZE PUSH1 0x0 REVERT JUMPDEST POP POP POP POP POP PUSH1 0x40 MLOAD RETURNDATASIZE PUSH1 0x1F NOT PUSH1 0x1F DUP3 ADD AND DUP3 ADD DUP1 PUSH1 0x40 MSTORE POP DUP2 ADD SWAP1 PUSH2 0x5D3 SWAP2 SWAP1 PUSH2 0xBF2 JUMP JUMPDEST SWAP4 SWAP3 POP POP POP JUMP JUMPDEST PUSH2 0x604 DUP2 PUSH32 0x0 PUSH2 0x51C JUMP JUMPDEST ISZERO PUSH2 0x60E JUMPI PUSH1 0x0 DUP1 REVERT JUMPDEST PUSH2 0x638 DUP2 PUSH32 0x0 PUSH2 0x51C JUMP JUMPDEST ISZERO PUSH2 0x642 JUMPI PUSH1 0x0 DUP1 REVERT JUMPDEST PUSH2 0x66C DUP2 PUSH32 0x0 PUSH2 0x51C JUMP JUMPDEST ISZERO PUSH2 0x676 JUMPI PUSH1 0x0 DUP1 REVERT JUMPDEST PUSH2 0x6A0 DUP2 PUSH32 0x0 PUSH2 0x51C JUMP JUMPDEST PUSH2 0x6A9 JUMPI PUSH1 0x0 DUP1 REVERT JUMPDEST PUSH1 0x2 DUP1 SLOAD PUSH2 0x6B9 SWAP1 PUSH1 0x1 SWAP1 PUSH2 0xB39 JUMP JUMPDEST DUP2 SLOAD DUP2 LT PUSH2 0x6C9 JUMPI PUSH2 0x6C9 PUSH2 0xB77 JUMP JUMPDEST SWAP1 PUSH1 0x0 MSTORE PUSH1 0x20 PUSH1 0x0 KECCAK256 ADD SLOAD PUSH1 0x4 EQ PUSH2 0x6E0 JUMPI PUSH1 0x0 DUP1 REVERT JUMPDEST PUSH1 0x2 DUP1 SLOAD DUP1 PUSH2 0x6F1 JUMPI PUSH2 0x6F1 PUSH2 0xBA6 JUMP JUMPDEST PUSH1 0x0 DUP3 DUP2 MSTORE PUSH1 0x20 DUP1 DUP3 KECCAK256 DUP4 ADD PUSH32 0xFFFFFFFFFFFFFFFFFFFFFFFFFFFFFFFFFFFFFFFFFFFFFFFFFFFFFFFFFFFFFFFF SWAP1 DUP2 ADD DUP4 SWAP1 SSTORE SWAP1 SWAP3 ADD SWAP1 SWAP3 SSTORE PUSH20 0xFFFFFFFFFFFFFFFFFFFFFFFFFFFFFFFFFFFFFFFF SWAP1 SWAP3 AND DUP2 MSTORE SWAP1 DUP2 SWAP1 MSTORE PUSH1 0x40 SWAP1 KECCAK256 DUP1 SLOAD PUSH32 0xFFFFFFFFFFFFFFFFFFFFFFFFFFFFFFFFFFFFFFFFFFFFFFFFFFFFFFFF00FFFFFF AND PUSH4 0x1000000 OR SWAP1 SSTORE JUMP JUMPDEST PUSH2 0x7A4 DUP2 PUSH32 0x0 PUSH2 0x51C JUMP JUMPDEST ISZERO PUSH2 0x7AE JUMPI PUSH1 0x0 DUP1 REVERT JUMPDEST PUSH2 0x7D8 DUP2 PUSH32 0x0 PUSH2 0x51C JUMP JUMPDEST ISZERO PUSH2 0x7E2 JUMPI PUSH1 0x0 DUP1 REVERT JUMPDEST PUSH2 0x80C DUP2 PUSH32 0x0 PUSH2 0x51C JUMP JUMPDEST PUSH2 0x815 JUMPI PUSH1 0x0 DUP1 REVERT JUMPDEST PUSH2 0x83F DUP2 PUSH32 0x0 PUSH2 0x51C JUMP JUMPDEST ISZERO PUSH2 0x849 JUMPI PUSH1 0x0 DUP1 REVERT JUMPDEST PUSH1 0x2 DUP1 SLOAD PUSH2 0x859 SWAP1 PUSH1 0x1 SWAP1 PUSH2 0xB39 JUMP JUMPDEST DUP2 SLOAD DUP2 LT PUSH2 0x869 JUMPI PUSH2 0x869 PUSH2 0xB77 JUMP JUMPDEST SWAP1 PUSH1 0x0 MSTORE PUSH1 0x20 PUSH1 0x0 KECCAK256 ADD SLOAD PUSH1 0x3 EQ PUSH2 0x880 JUMPI PUSH1 0x0 DUP1 REVERT JUMPDEST PUSH1 0x2 DUP1 SLOAD DUP1 PUSH2 0x891 JUMPI PUSH2 0x891 PUSH2 0xBA6 JUMP JUMPDEST PUSH1 0x0 DUP3 DUP2 MSTORE PUSH1 0x20 DUP1 DUP3 KECCAK256 DUP4 ADD PUSH32 0xFFFFFFFFFFFFFFFFFFFFFFFFFFFFFFFFFFFFFFFFFFFFFFFFFFFFFFFFFFFFFFFF SWAP1 DUP2 ADD DUP4 SWAP1 SSTORE SWAP1 SWAP3 ADD SWAP1 SWAP3 SSTORE PUSH20 0xFFFFFFFFFFFFFFFFFFFFFFFFFFFFFFFFFFFFFFFF SWAP1 SWAP3 AND DUP2 MSTORE SWAP1 DUP2 SWAP1 MSTORE PUSH1 0x40 SWAP1 KECCAK256 DUP1 SLOAD PUSH32 0xFFFFFFFFFFFFFFFFFFFFFFFFFFFFFFFFFFFFFFFFFFFFFFFFFFFFFFFFFF00FFFF AND PUSH3 0x10000 OR SWAP1 SSTORE JUMP JUMPDEST PUSH2 0x943 DUP2 PUSH32 0x0 PUSH2 0x51C JUMP JUMPDEST PUSH2 0x94C JUMPI PUSH1 0x0 DUP1 REVERT JUMPDEST PUSH2 0x976 DUP2 PUSH32 0x0 PUSH2 0x51C JUMP JUMPDEST ISZERO PUSH2 0x980 JUMPI PUSH1 0x0 DUP1 REVERT JUMPDEST PUSH2 0x9AA DUP2 PUSH32 0x0 PUSH2 0x51C JUMP JUMPDEST ISZERO PUSH2 0x9B4 JUMPI PUSH1 0x0 DUP1 REVERT JUMPDEST PUSH2 0x9DE DUP2 PUSH32 0x0 PUSH2 0x51C JUMP JUMPDEST ISZERO PUSH2 0x9E8 JUMPI PUSH1 0x0 DUP1 REVERT JUMPDEST PUSH20 0xFFFFFFFFFFFFFFFFFFFFFFFFFFFFFFFFFFFFFFFF DUP2 AND PUSH1 0x0 SWAP1 DUP2 MSTORE PUSH1 0x20 DUP2 SWAP1 MSTORE PUSH1 0x40 SWAP1 KECCAK256 DUP1 SLOAD PUSH32 0xFFFFFFFFFFFFFFFFFFFFFFFFFFFFFFFFFFFFFFFFFFFFFFFFFFFFFFFFFFFFFF00 AND PUSH1 0x1 SWAP1 DUP2 OR SWAP1 SWAP2 SSTORE PUSH1 0x2 DUP1 SLOAD SWAP1 SWAP2 PUSH2 0xA48 SWAP2 PUSH2 0xB39 JUMP JUMPDEST DUP2 SLOAD DUP2 LT PUSH2 0xA58 JUMPI PUSH2 0xA58 PUSH2 0xB77 JUMP JUMPDEST SWAP1 PUSH1 0x0 MSTORE PUSH1 0x20 PUSH1 0x0 KECCAK256 ADD SLOAD PUSH1 0x1 EQ PUSH2 0xA6F JUMPI PUSH1 0x0 DUP1 REVERT JUMPDEST PUSH1 0x2 DUP1 SLOAD DUP1 PUSH2 0xA80 JUMPI PUSH2 0xA80 PUSH2 0xBA6 JUMP JUMPDEST PUSH1 0x1 SWAP1 SUB DUP2 DUP2 SWAP1 PUSH1 0x0 MSTORE PUSH1 0x20 PUSH1 0x0 KECCAK256 ADD PUSH1 0x0 SWAP1 SSTORE SWAP1 SSTORE POP JUMP JUMPDEST PUSH20 0xFFFFFFFFFFFFFFFFFFFFFFFFFFFFFFFFFFFFFFFF DUP2 AND DUP2 EQ PUSH2 0xABB JUMPI PUSH1 0x0 DUP1 REVERT JUMPDEST POP JUMP JUMPDEST PUSH1 0x0 PUSH1 0x20 DUP3 DUP5 SUB SLT ISZERO PUSH2 0xAD0 JUMPI PUSH1 0x0 DUP1 REVERT JUMPDEST DUP2 CALLDATALOAD PUSH2 0x5D3 DUP2 PUSH2 0xA99 JUMP JUMPDEST PUSH1 0x0 DUP1 PUSH1 0x40 DUP4 DUP6 SUB SLT ISZERO PUSH2 0xAEE JUMPI PUSH1 0x0 DUP1 REVERT JUMPDEST DUP3 CALLDATALOAD PUSH2 0xAF9 DUP2 PUSH2 0xA99 JUMP JUMPDEST SWAP2 POP PUSH1 0x20 DUP4 ADD CALLDATALOAD PUSH32 0xFFFFFFFF00000000000000000000000000000000000000000000000000000000 DUP2 AND DUP2 EQ PUSH2 0xB2E JUMPI PUSH1 0x0 DUP1 REVERT JUMPDEST DUP1 SWAP2 POP POP SWAP3 POP SWAP3 SWAP1 POP JUMP JUMPDEST PUSH1 0x0 DUP3 DUP3 LT ISZERO PUSH2 0xB72 JUMPI PUSH32 0x4E487B7100000000000000000000000000000000000000000000000000000000 PUSH1 0x0 MSTORE PUSH1 0x11 PUSH1 0x4 MSTORE PUSH1 0x24 PUSH1 0x0 REVERT JUMPDEST POP SUB SWAP1 JUMP JUMPDEST PUSH32 0x4E487B7100000000000000000000000000000000000000000000000000000000 PUSH1 0x0 MSTORE PUSH1 0x32 PUSH1 0x4 MSTORE PUSH1 0x24 PUSH1 0x0 REVERT JUMPDEST PUSH32 0x4E487B7100000000000000000000000000000000000000000000000000000000 PUSH1 0x0 MSTORE PUSH1 0x31 PUSH1 0x4 MSTORE PUSH1 0x24 PUSH1 0x0 REVERT JUMPDEST PUSH1 0x0 PUSH1 0x20 DUP3 DUP5 SUB SLT ISZERO PUSH2 0xBE7 JUMPI PUSH1 0x0 DUP1 REVERT JUMPDEST DUP2 MLOAD PUSH2 0x5D3 DUP2 PUSH2 0xA99 JUMP JUMPDEST PUSH1 0x0 PUSH1 0x20 DUP3 DUP5 SUB SLT ISZERO PUSH2 0xC04 JUMPI PUSH1 0x0 DUP1 REVERT JUMPDEST DUP2 MLOAD DUP1 ISZERO ISZERO DUP2 EQ PUSH2 0x5D3 JUMPI PUSH1 0x0 DUP1 REVERT INVALID LOG2 PUSH5 0x6970667358 0x22 SLT KECCAK256 INVALID DIFFICULTY 0xF6 0xE8 SWAP4 0xBF 0xA5 XOR EXTCODESIZE LT 0xC0 SIGNEXTEND 0xD1 0xC8 PUSH19 0x14BC4A87B820389B0BF7AC5497FB8B862B6473 PUSH16 0x6C634300080F00330000000000000000 "},"methodIdentifiers":{"GAS_LIMIT()":"091d2788","_supportsInterface(address,bytes4)":"27a82833","challenge1(address)":"5c0509f5","challenge2(address)":"0b8287ee","challenge3(address)":"48881449","challenge4(address)":"444ce9de","success(address)":"26e4baae"}}}}}