{"contracts/contracts_optimized/ArraySort.sol":{"OptimizedArraySort":{"abi":[{"inputs":[{"internalType":"uint256[]","name":"data","type":"uint256[]"}],"name":"sortArray","outputs":[{"internalType":"uint256[]","name":"","type":"uint256[]"}],"stateMutability":"pure","type":"function"}],"evm":{"bytecode":{"linkReferences":{},"object":"608060405234801561001057600080fd5b506103c8806100206000396000f3fe608060405234801561001057600080fd5b506004361061002b5760003560e01c8063e379976e14610030575b600080fd5b61004361003e3660046101fc565b610059565b6040516100509190610271565b60405180910390f35b60608160008167ffffffffffffffff811115610077576100776102b5565b6040519080825280602002602001820160405280156100a0578160200160208202803683370190505b50905060005b81518110156100f7578585828181106100c1576100c16102e4565b905060200201358282815181106100da576100da6102e4565b6020908102919091010152806100ef81610342565b9150506100a6565b5060005b81518110156101f357600061011182600161037a565b90505b82518110156101e05782818151811061012f5761012f6102e4565b6020026020010151838381518110610149576101496102e4565b602002602001015111156101ce57600083838151811061016b5761016b6102e4565b60200260200101519050838281518110610187576101876102e4565b60200260200101518484815181106101a1576101a16102e4565b602002602001018181525050808483815181106101c0576101c06102e4565b602002602001018181525050505b806101d881610342565b915050610114565b50806101eb81610342565b9150506100fb565b50949350505050565b6000806020838503121561020f57600080fd5b823567ffffffffffffffff8082111561022757600080fd5b818501915085601f83011261023b57600080fd5b81358181111561024a57600080fd5b8660208260051b850101111561025f57600080fd5b60209290920196919550909350505050565b6020808252825182820181905260009190848201906040850190845b818110156102a95783518352928401929184019160010161028d565b50909695505050505050565b7f4e487b7100000000000000000000000000000000000000000000000000000000600052604160045260246000fd5b7f4e487b7100000000000000000000000000000000000000000000000000000000600052603260045260246000fd5b7f4e487b7100000000000000000000000000000000000000000000000000000000600052601160045260246000fd5b60007fffffffffffffffffffffffffffffffffffffffffffffffffffffffffffffffff820361037357610373610313565b5060010190565b6000821982111561038d5761038d610313565b50019056fea2646970667358221220adaabfb585040182decfd25085df06edc2e9bec3b8b06083fcb1ca5b66e2e20364736f6c634300080f0033","opcodes":"PUSH1 0x80 PUSH1 0x40 MSTORE CALLVALUE DUP1 ISZERO PUSH2 0x10 JUMPI PUSH1 0x0 DUP1 REVERT JUMPDEST POP PUSH2 0x3C8 DUP1 PUSH2 0x20 PUSH1 0x0 CODECOPY PUSH1 0x0 RETURN INVALID PUSH1 0x80 PUSH1 0x40 MSTORE CALLVALUE DUP1 ISZERO PUSH2 0x10 JUMPI PUSH1 0x0 DUP1 REVERT JUMPDEST POP PUSH1 0x4 CALLDATASIZE LT PUSH2 0x2B JUMPI PUSH1 0x0 CALLDATALOAD PUSH1 0xE0 SHR DUP1 PUSH4 0xE379976E EQ PUSH2 0x30 JUMPI JUMPDEST PUSH1 0x0 DUP1 REVERT JUMPDEST PUSH2 0x43 PUSH2 0x3E CALLDATASIZE PUSH1 0x4 PUSH2 0x1FC JUMP JUMPDEST PUSH2 0x59 JUMP JUMPDEST PUSH1 0x40 MLOAD PUSH2 0x50 SWAP2 SWAP1 PUSH2 0x271 JUMP JUMPDEST PUSH1 0x40 MLOAD DUP1 SWAP2 SUB SWAP1 RETURN JUMPDEST PUSH1 0x60 DUP2 PUSH1 0x0 DUP2 PUSH8 0xFFFFFFFFFFFFFFFF DUP2 GT ISZERO PUSH2 0x77 JUMPI PUSH2 0x77 PUSH2 0x2B5 JUMP JUMPDEST PUSH1 0x40 MLOAD SWAP1 DUP1 DUP3 MSTORE DUP1 PUSH1 0x20 MUL PUSH1 0x20 ADD DUP3 ADD PUSH1 0x40 MSTORE DUP1 ISZERO PUSH2 0xA0 JUMPI DUP2 PUSH1 0x20 ADD PUSH1 0x20 DUP3 MUL DUP1 CALLDATASIZE DUP4 CALLDATACOPY ADD SWAP1 POP JUMPDEST POP SWAP1 POP PUSH1 0x0 JUMPDEST DUP2 MLOAD DUP2 LT ISZERO PUSH2 0xF7 JUMPI DUP6 DUP6 DUP3 DUP2 DUP2 LT PUSH2 0xC1 JUMPI PUSH2 0xC1 PUSH2 0x2E4 JUMP JUMPDEST SWAP1 POP PUSH1 0x20 MUL ADD CALLDATALOAD DUP3 DUP3 DUP2 MLOAD DUP2 LT PUSH2 0xDA JUMPI PUSH2 0xDA PUSH2 0x2E4 JUMP JUMPDEST PUSH1 0x20 SWAP1 DUP2 MUL SWAP2 SWAP1 SWAP2 ADD ADD MSTORE DUP1 PUSH2 0xEF DUP2 PUSH2 0x342 JUMP JUMPDEST SWAP2 POP POP PUSH2 0xA6 JUMP JUMPDEST POP PUSH1 0x0 JUMPDEST DUP2 MLOAD DUP2 LT ISZERO PUSH2 0x1F3 JUMPI PUSH1 0x0 PUSH2 0x111 DUP3 PUSH1 0x1 PUSH2 0x37A JUMP JUMPDEST SWAP1 POP JUMPDEST DUP3 MLOAD DUP2 LT ISZERO PUSH2 0x1E0 JUMPI DUP3 DUP2 DUP2 MLOAD DUP2 LT PUSH2 0x12F JUMPI PUSH2 0x12F PUSH2 0x2E4 JUMP JUMPDEST PUSH1 0x20 MUL PUSH1 0x20 ADD ADD MLOAD DUP4 DUP4 DUP2 MLOAD DUP2 LT PUSH2 0x149 JUMPI PUSH2 0x149 PUSH2 0x2E4 JUMP JUMPDEST PUSH1 0x20 MUL PUSH1 0x20 ADD ADD MLOAD GT ISZERO PUSH2 0x1CE JUMPI PUSH1 0x0 DUP4 DUP4 DUP2 MLOAD DUP2 LT PUSH2 0x16B JUMPI PUSH2 0x16B PUSH2 0x2E4 JUMP JUMPDEST PUSH1 0x20 MUL PUSH1 0x20 ADD ADD MLOAD SWAP1 POP DUP4 DUP3 DUP2 MLOAD DUP2 LT PUSH2 0x187 JUMPI PUSH2 0x187 PUSH2 0x2E4 JUMP JUMPDEST PUSH1 0x20 MUL PUSH1 0x20 ADD ADD MLOAD DUP5 DUP5 DUP2 MLOAD DUP2 LT PUSH2 0x1A1 JUMPI PUSH2 0x1A1 PUSH2 0x2E4 JUMP JUMPDEST PUSH1 0x20 MUL PUSH1 0x20 ADD ADD DUP2 DUP2 MSTORE POP POP DUP1 DUP5 DUP4 DUP2 MLOAD DUP2 LT PUSH2 0x1C0 JUMPI PUSH2 0x1C0 PUSH2 0x2E4 JUMP JUMPDEST PUSH1 0x20 MUL PUSH1 0x20 ADD ADD DUP2 DUP2 MSTORE POP POP POP JUMPDEST DUP1 PUSH2 0x1D8 DUP2 PUSH2 0x342 JUMP JUMPDEST SWAP2 POP POP PUSH2 0x114 JUMP JUMPDEST POP DUP1 PUSH2 0x1EB DUP2 PUSH2 0x342 JUMP JUMPDEST SWAP2 POP POP PUSH2 0xFB JUMP JUMPDEST POP SWAP5 SWAP4 POP POP POP POP JUMP JUMPDEST PUSH1 0x0 DUP1 PUSH1 0x20 DUP4 DUP6 SUB SLT ISZERO PUSH2 0x20F JUMPI PUSH1 0x0 DUP1 REVERT JUMPDEST DUP3 CALLDATALOAD PUSH8 0xFFFFFFFFFFFFFFFF DUP1 DUP3 GT ISZERO PUSH2 0x227 JUMPI PUSH1 0x0 DUP1 REVERT JUMPDEST DUP2 DUP6 ADD SWAP2 POP DUP6 PUSH1 0x1F DUP4 ADD SLT PUSH2 0x23B JUMPI PUSH1 0x0 DUP1 REVERT JUMPDEST DUP2 CALLDATALOAD DUP2 DUP2 GT ISZERO PUSH2 0x24A JUMPI PUSH1 0x0 DUP1 REVERT JUMPDEST DUP7 PUSH1 0x20 DUP3 PUSH1 0x5 SHL DUP6 ADD ADD GT ISZERO PUSH2 0x25F JUMPI PUSH1 0x0 DUP1 REVERT JUMPDEST PUSH1 0x20 SWAP3 SWAP1 SWAP3 ADD SWAP7 SWAP2 SWAP6 POP SWAP1 SWAP4 POP POP POP POP JUMP JUMPDEST PUSH1 0x20 DUP1 DUP3 MSTORE DUP3 MLOAD DUP3 DUP3 ADD DUP2 SWAP1 MSTORE PUSH1 0x0 SWAP2 SWAP1 DUP5 DUP3 ADD SWAP1 PUSH1 0x40 DUP6 ADD SWAP1 DUP5 JUMPDEST DUP2 DUP2 LT ISZERO PUSH2 0x2A9 JUMPI DUP4 MLOAD DUP4 MSTORE SWAP3 DUP5 ADD SWAP3 SWAP2 DUP5 ADD SWAP2 PUSH1 0x1 ADD PUSH2 0x28D JUMP JUMPDEST POP SWAP1 SWAP7 SWAP6 POP POP POP POP POP POP JUMP JUMPDEST PUSH32 0x4E487B7100000000000000000000000000000000000000000000000000000000 PUSH1 0x0 MSTORE PUSH1 0x41 PUSH1 0x4 MSTORE PUSH1 0x24 PUSH1 0x0 REVERT JUMPDEST PUSH32 0x4E487B7100000000000000000000000000000000000000000000000000000000 PUSH1 0x0 MSTORE PUSH1 0x32 PUSH1 0x4 MSTORE PUSH1 0x24 PUSH1 0x0 REVERT JUMPDEST PUSH32 0x4E487B7100000000000000000000000000000000000000000000000000000000 PUSH1 0x0 MSTORE PUSH1 0x11 PUSH1 0x4 MSTORE PUSH1 0x24 PUSH1 0x0 REVERT JUMPDEST PUSH1 0x0 PUSH32 0xFFFFFFFFFFFFFFFFFFFFFFFFFFFFFFFFFFFFFFFFFFFFFFFFFFFFFFFFFFFFFFFF DUP3 SUB PUSH2 0x373 JUMPI PUSH2 0x373 PUSH2 0x313 JUMP JUMPDEST POP PUSH1 0x1 ADD SWAP1 JUMP JUMPDEST PUSH1 0x0 DUP3 NOT DUP3 GT ISZERO PUSH2 0x38D JUMPI PUSH2 0x38D PUSH2 0x313 JUMP JUMPDEST POP ADD SWAP1 JUMP INVALID LOG2 PUSH5 0x6970667358 0x22 SLT KECCAK256 0xAD 0xAA 0xBF 0xB5 DUP6 DIV ADD DUP3 0xDE 0xCF 0xD2 POP DUP6 0xDF MOD 0xED 0xC2 0xE9 0xBE 0xC3 0xB8 0xB0 PUSH1 0x83 0xFC 0xB1 0xCA JUMPDEST PUSH7 0xE2E20364736F6C PUSH4 0x4300080F STOP CALLER "},"methodIdentifiers":{"sortArray(uint256[])":"e379976e"}}}}}