{"contracts/EscrowV2.sol":{"EscrowV2":{"abi":[{"inputs":[{"internalType":"address","name":"_buyer","type":"address"},{"internalType":"address","name":"_seller","type":"address"},{"internalType":"address","name":"_arbiter","type":"address"},{"internalType":"uint256","name":"_duration","type":"uint256"}],"stateMutability":"nonpayable","type":"constructor"},{"inputs":[],"name":"alreadyDeposited","outputs":[{"internalType":"bool","name":"","type":"bool"}],"stateMutability":"view","type":"function"},{"inputs":[],"name":"arbiter","outputs":[{"internalType":"address","name":"","type":"address"}],"stateMutability":"view","type":"function"},{"inputs":[],"name":"buyer","outputs":[{"internalType":"address","name":"","type":"address"}],"stateMutability":"view","type":"function"},{"inputs":[],"name":"buyerDeposit","outputs":[],"stateMutability":"payable","type":"function"},{"inputs":[],"name":"depositDate","outputs":[{"internalType":"uint256","name":"","type":"uint256"}],"stateMutability":"view","type":"function"},{"inputs":[],"name":"duration","outputs":[{"internalType":"uint256","name":"","type":"uint256"}],"stateMutability":"view","type":"function"},{"inputs":[],"name":"seller","outputs":[{"internalType":"address","name":"","type":"address"}],"stateMutability":"view","type":"function"},{"inputs":[],"name":"sellerWithdraw","outputs":[],"stateMutability":"nonpayable","type":"function"}],"evm":{"bytecode":{"linkReferences":{},"object":"608060405234801561001057600080fd5b5060405161056b38038061056b83398101604081905261002f91610054565b5050505061009f565b80516001600160a01b038116811461004f57600080fd5b919050565b6000806000806080858703121561006a57600080fd5b61007385610038565b935061008160208601610038565b925061008f60408601610038565b6060959095015193969295505050565b6104bd806100ae6000396000f3fe60806040526004361061007b5760003560e01c8063a05795871161004e578063a05795871461013f578063b933c82d14610147578063f6b7f94514610171578063fe25e00a1461018757600080fd5b806308551a53146100805780630fb5a6b4146100d757806366af746b146100fb5780637150d8ae14610112575b600080fd5b34801561008c57600080fd5b506001546100ad9073ffffffffffffffffffffffffffffffffffffffff1681565b60405173ffffffffffffffffffffffffffffffffffffffff90911681526020015b60405180910390f35b3480156100e357600080fd5b506100ed60045481565b6040519081526020016100ce565b34801561010757600080fd5b506101106101b4565b005b34801561011e57600080fd5b506000546100ad9073ffffffffffffffffffffffffffffffffffffffff1681565b61011061032e565b34801561015357600080fd5b506005546101619060ff1681565b60405190151581526020016100ce565b34801561017d57600080fd5b506100ed60035481565b34801561019357600080fd5b506002546100ad9073ffffffffffffffffffffffffffffffffffffffff1681565b60015473ffffffffffffffffffffffffffffffffffffffff163314610260576040517f08c379a000000000000000000000000000000000000000000000000000000000815260206004820152602b60248201527f796f7520617265206e6f74207468652073656c6c65722c20796f752063616e6e60448201527f6f7420776974686472617700000000000000000000000000000000000000000060648201526084015b60405180910390fd5b6004546003546102709190610448565b4210156102ff576040517f08c379a000000000000000000000000000000000000000000000000000000000815260206004820152603860248201527f796f752063616e6e6f74207769746864726177207965742c20796f752067726560448201527f6564792073656c6c65722e2054616b65206974206561737900000000000000006064820152608401610257565b60405133904780156108fc02916000818181858888f1935050505015801561032b573d6000803e3d6000fd5b50565b60005473ffffffffffffffffffffffffffffffffffffffff1633146103d5576040517f08c379a000000000000000000000000000000000000000000000000000000000815260206004820152602960248201527f796f7520617265206e6f74207468652062757965722c20796f752063616e6e6f60448201527f74206465706f73697400000000000000000000000000000000000000000000006064820152608401610257565b60055460ff1615610442576040517f08c379a000000000000000000000000000000000000000000000000000000000815260206004820152601860248201527f796f752063616e6e6f74206465706f73697420747769636500000000000000006044820152606401610257565b42600355565b60008219821115610482577f4e487b7100000000000000000000000000000000000000000000000000000000600052601160045260246000fd5b50019056fea2646970667358221220b8e3324b4957181a62f3fdfb725f195468080f4404ca6b89093f555c6344bf8464736f6c634300080f0033","opcodes":"PUSH1 0x80 PUSH1 0x40 MSTORE CALLVALUE DUP1 ISZERO PUSH2 0x10 JUMPI PUSH1 0x0 DUP1 REVERT JUMPDEST POP PUSH1 0x40 MLOAD PUSH2 0x56B CODESIZE SUB DUP1 PUSH2 0x56B DUP4 CODECOPY DUP2 ADD PUSH1 0x40 DUP2 SWAP1 MSTORE PUSH2 0x2F SWAP2 PUSH2 0x54 JUMP JUMPDEST POP POP POP POP PUSH2 0x9F JUMP JUMPDEST DUP1 MLOAD PUSH1 0x1 PUSH1 0x1 PUSH1 0xA0 SHL SUB DUP2 AND DUP2 EQ PUSH2 0x4F JUMPI PUSH1 0x0 DUP1 REVERT JUMPDEST SWAP2 SWAP1 POP JUMP JUMPDEST PUSH1 0x0 DUP1 PUSH1 0x0 DUP1 PUSH1 0x80 DUP6 DUP8 SUB SLT ISZERO PUSH2 0x6A JUMPI PUSH1 0x0 DUP1 REVERT JUMPDEST PUSH2 0x73 DUP6 PUSH2 0x38 JUMP JUMPDEST SWAP4 POP PUSH2 0x81 PUSH1 0x20 DUP7 ADD PUSH2 0x38 JUMP JUMPDEST SWAP3 POP PUSH2 0x8F PUSH1 0x40 DUP7 ADD PUSH2 0x38 JUMP JUMPDEST PUSH1 0x60 SWAP6 SWAP1 SWAP6 ADD MLOAD SWAP4 SWAP7 SWAP3 SWAP6 POP POP POP JUMP JUMPDEST PUSH2 0x4BD DUP1 PUSH2 0xAE PUSH1 0x0 CODECOPY PUSH1 0x0 RETURN INVALID PUSH1 0x80 PUSH1 0x40 MSTORE PUSH1 0x4 CALLDATASIZE LT PUSH2 0x7B JUMPI PUSH1 0x0 CALLDATALOAD PUSH1 0xE0 SHR DUP1 PUSH4 0xA0579587 GT PUSH2 0x4E JUMPI DUP1 PUSH4 0xA0579587 EQ PUSH2 0x13F JUMPI DUP1 PUSH4 0xB933C82D EQ PUSH2 0x147 JUMPI DUP1 PUSH4 0xF6B7F945 EQ PUSH2 0x171 JUMPI DUP1 PUSH4 0xFE25E00A EQ PUSH2 0x187 JUMPI PUSH1 0x0 DUP1 REVERT JUMPDEST DUP1 PUSH4 0x8551A53 EQ PUSH2 0x80 JUMPI DUP1 PUSH4 0xFB5A6B4 EQ PUSH2 0xD7 JUMPI DUP1 PUSH4 0x66AF746B EQ PUSH2 0xFB JUMPI DUP1 PUSH4 0x7150D8AE EQ PUSH2 0x112 JUMPI JUMPDEST PUSH1 0x0 DUP1 REVERT JUMPDEST CALLVALUE DUP1 ISZERO PUSH2 0x8C JUMPI PUSH1 0x0 DUP1 REVERT JUMPDEST POP PUSH1 0x1 SLOAD PUSH2 0xAD SWAP1 PUSH20 0xFFFFFFFFFFFFFFFFFFFFFFFFFFFFFFFFFFFFFFFF AND DUP2 JUMP JUMPDEST PUSH1 0x40 MLOAD PUSH20 0xFFFFFFFFFFFFFFFFFFFFFFFFFFFFFFFFFFFFFFFF SWAP1 SWAP2 AND DUP2 MSTORE PUSH1 0x20 ADD JUMPDEST PUSH1 0x40 MLOAD DUP1 SWAP2 SUB SWAP1 RETURN JUMPDEST CALLVALUE DUP1 ISZERO PUSH2 0xE3 JUMPI PUSH1 0x0 DUP1 REVERT JUMPDEST POP PUSH2 0xED PUSH1 0x4 SLOAD DUP2 JUMP JUMPDEST PUSH1 0x40 MLOAD SWAP1 DUP2 MSTORE PUSH1 0x20 ADD PUSH2 0xCE JUMP JUMPDEST CALLVALUE DUP1 ISZERO PUSH2 0x107 JUMPI PUSH1 0x0 DUP1 REVERT JUMPDEST POP PUSH2 0x110 PUSH2 0x1B4 JUMP JUMPDEST STOP JUMPDEST CALLVALUE DUP1 ISZERO PUSH2 0x11E JUMPI PUSH1 0x0 DUP1 REVERT JUMPDEST POP PUSH1 0x0 SLOAD PUSH2 0xAD SWAP1 PUSH20 0xFFFFFFFFFFFFFFFFFFFFFFFFFFFFFFFFFFFFFFFF AND DUP2 JUMP JUMPDEST PUSH2 0x110 PUSH2 0x32E JUMP JUMPDEST CALLVALUE DUP1 ISZERO PUSH2 0x153 JUMPI PUSH1 0x0 DUP1 REVERT JUMPDEST POP PUSH1 0x5 SLOAD PUSH2 0x161 SWAP1 PUSH1 0xFF AND DUP2 JUMP JUMPDEST PUSH1 0x40 MLOAD SWAP1 ISZERO ISZERO DUP2 MSTORE PUSH1 0x20 ADD PUSH2 0xCE JUMP JUMPDEST CALLVALUE DUP1 ISZERO PUSH2 0x17D JUMPI PUSH1 0x0 DUP1 REVERT JUMPDEST POP PUSH2 0xED PUSH1 0x3 SLOAD DUP2 JUMP JUMPDEST CALLVALUE DUP1 ISZERO PUSH2 0x193 JUMPI PUSH1 0x0 DUP1 REVERT JUMPDEST POP PUSH1 0x2 SLOAD PUSH2 0xAD SWAP1 PUSH20 0xFFFFFFFFFFFFFFFFFFFFFFFFFFFFFFFFFFFFFFFF AND DUP2 JUMP JUMPDEST PUSH1 0x1 SLOAD PUSH20 0xFFFFFFFFFFFFFFFFFFFFFFFFFFFFFFFFFFFFFFFF AND CALLER EQ PUSH2 0x260 JUMPI PUSH1 0x40 MLOAD PUSH32 0x8C379A000000000000000000000000000000000000000000000000000000000 DUP2 MSTORE PUSH1 0x20 PUSH1 0x4 DUP3 ADD MSTORE PUSH1 0x2B PUSH1 0x24 DUP3 ADD MSTORE PUSH32 0x796F7520617265206E6F74207468652073656C6C65722C20796F752063616E6E PUSH1 0x44 DUP3 ADD MSTORE PUSH32 0x6F74207769746864726177000000000000000000000000000000000000000000 PUSH1 0x64 DUP3 ADD MSTORE PUSH1 0x84 ADD JUMPDEST PUSH1 0x40 MLOAD DUP1 SWAP2 SUB SWAP1 REVERT JUMPDEST PUSH1 0x4 SLOAD PUSH1 0x3 SLOAD PUSH2 0x270 SWAP2 SWAP1 PUSH2 0x448 JUMP JUMPDEST TIMESTAMP LT ISZERO PUSH2 0x2FF JUMPI PUSH1 0x40 MLOAD PUSH32 0x8C379A000000000000000000000000000000000000000000000000000000000 DUP2 MSTORE PUSH1 0x20 PUSH1 0x4 DUP3 ADD MSTORE PUSH1 0x38 PUSH1 0x24 DUP3 ADD MSTORE PUSH32 0x796F752063616E6E6F74207769746864726177207965742C20796F7520677265 PUSH1 0x44 DUP3 ADD MSTORE PUSH32 0x6564792073656C6C65722E2054616B6520697420656173790000000000000000 PUSH1 0x64 DUP3 ADD MSTORE PUSH1 0x84 ADD PUSH2 0x257 JUMP JUMPDEST PUSH1 0x40 MLOAD CALLER SWAP1 SELFBALANCE DUP1 ISZERO PUSH2 0x8FC MUL SWAP2 PUSH1 0x0 DUP2 DUP2 DUP2 DUP6 DUP9 DUP9 CALL SWAP4 POP POP POP POP ISZERO DUP1 ISZERO PUSH2 0x32B JUMPI RETURNDATASIZE PUSH1 0x0 DUP1 RETURNDATACOPY RETURNDATASIZE PUSH1 0x0 REVERT JUMPDEST POP JUMP JUMPDEST PUSH1 0x0 SLOAD PUSH20 0xFFFFFFFFFFFFFFFFFFFFFFFFFFFFFFFFFFFFFFFF AND CALLER EQ PUSH2 0x3D5 JUMPI PUSH1 0x40 MLOAD PUSH32 0x8C379A000000000000000000000000000000000000000000000000000000000 DUP2 MSTORE PUSH1 0x20 PUSH1 0x4 DUP3 ADD MSTORE PUSH1 0x29 PUSH1 0x24 DUP3 ADD MSTORE PUSH32 0x796F7520617265206E6F74207468652062757965722C20796F752063616E6E6F PUSH1 0x44 DUP3 ADD MSTORE PUSH32 0x74206465706F7369740000000000000000000000000000000000000000000000 PUSH1 0x64 DUP3 ADD MSTORE PUSH1 0x84 ADD PUSH2 0x257 JUMP JUMPDEST PUSH1 0x5 SLOAD PUSH1 0xFF AND ISZERO PUSH2 0x442 JUMPI PUSH1 0x40 MLOAD PUSH32 0x8C379A000000000000000000000000000000000000000000000000000000000 DUP2 MSTORE PUSH1 0x20 PUSH1 0x4 DUP3 ADD MSTORE PUSH1 0x18 PUSH1 0x24 DUP3 ADD MSTORE PUSH32 0x796F752063616E6E6F74206465706F7369742074776963650000000000000000 PUSH1 0x44 DUP3 ADD MSTORE PUSH1 0x64 ADD PUSH2 0x257 JUMP JUMPDEST TIMESTAMP PUSH1 0x3 SSTORE JUMP JUMPDEST PUSH1 0x0 DUP3 NOT DUP3 GT ISZERO PUSH2 0x482 JUMPI PUSH32 0x4E487B7100000000000000000000000000000000000000000000000000000000 PUSH1 0x0 MSTORE PUSH1 0x11 PUSH1 0x4 MSTORE PUSH1 0x24 PUSH1 0x0 REVERT JUMPDEST POP ADD SWAP1 JUMP INVALID LOG2 PUSH5 0x6970667358 0x22 SLT KECCAK256 0xB8 0xE3 ORIGIN 0x4B 0x49 JUMPI XOR BYTE PUSH3 0xF3FDFB PUSH19 0x5F195468080F4404CA6B89093F555C6344BF84 PUSH5 0x736F6C6343 STOP ADDMOD 0xF STOP CALLER "},"methodIdentifiers":{"alreadyDeposited()":"b933c82d","arbiter()":"fe25e00a","buyer()":"7150d8ae","buyerDeposit()":"a0579587","depositDate()":"f6b7f945","duration()":"0fb5a6b4","seller()":"08551a53","sellerWithdraw()":"66af746b"}}}}}