{"contracts/Staking.sol":{"Staking":{"abi":[{"inputs":[{"internalType":"uint256","name":"duration","type":"uint256"}],"name":"stakeEther","outputs":[],"stateMutability":"payable","type":"function"},{"inputs":[{"internalType":"address","name":"","type":"address"}],"name":"stakes","outputs":[{"internalType":"uint256","name":"amount","type":"uint256"},{"internalType":"address","name":"buyer","type":"address"},{"internalType":"uint256","name":"depositTimestamp","type":"uint256"},{"internalType":"uint256","name":"duration","type":"uint256"}],"stateMutability":"view","type":"function"},{"inputs":[],"name":"withdrawEther","outputs":[],"stateMutability":"nonpayable","type":"function"}],"evm":{"bytecode":{"linkReferences":{},"object":"608060405234801561001057600080fd5b50610202806100206000396000f3fe6080604052600436106100345760003560e01c806316934fc4146100395780637362377b146100cb578063e4f90841146100db575b600080fd5b34801561004557600080fd5b50610092610054366004610176565b6000602081905290815260409020805460018201546002830154600390930154919273ffffffffffffffffffffffffffffffffffffffff9091169184565b6040805194855273ffffffffffffffffffffffffffffffffffffffff909316602085015291830152606082015260800160405180910390f35b3480156100d757600080fd5b505b005b6100d96100e93660046101b3565b806201518014806100fc57508062093a80145b8061010957508062278d00145b610173576040517f08c379a000000000000000000000000000000000000000000000000000000000815260206004820152601460248201527f6e6f7420612076616c6964206475726174696f6e000000000000000000000000604482015260640160405180910390fd5b50565b60006020828403121561018857600080fd5b813573ffffffffffffffffffffffffffffffffffffffff811681146101ac57600080fd5b9392505050565b6000602082840312156101c557600080fd5b503591905056fea26469706673582212207525fb557713e7256a38ae9afb3fadbee5f8e1a611d75c064d54c3eb1fd3540f64736f6c634300080f0033","opcodes":"PUSH1 0x80 PUSH1 0x40 MSTORE CALLVALUE DUP1 ISZERO PUSH2 0x10 JUMPI PUSH1 0x0 DUP1 REVERT JUMPDEST POP PUSH2 0x202 DUP1 PUSH2 0x20 PUSH1 0x0 CODECOPY PUSH1 0x0 RETURN INVALID PUSH1 0x80 PUSH1 0x40 MSTORE PUSH1 0x4 CALLDATASIZE LT PUSH2 0x34 JUMPI PUSH1 0x0 CALLDATALOAD PUSH1 0xE0 SHR DUP1 PUSH4 0x16934FC4 EQ PUSH2 0x39 JUMPI DUP1 PUSH4 0x7362377B EQ PUSH2 0xCB JUMPI DUP1 PUSH4 0xE4F90841 EQ PUSH2 0xDB JUMPI JUMPDEST PUSH1 0x0 DUP1 REVERT JUMPDEST CALLVALUE DUP1 ISZERO PUSH2 0x45 JUMPI PUSH1 0x0 DUP1 REVERT JUMPDEST POP PUSH2 0x92 PUSH2 0x54 CALLDATASIZE PUSH1 0x4 PUSH2 0x176 JUMP JUMPDEST PUSH1 0x0 PUSH1 0x20 DUP2 SWAP1 MSTORE SWAP1 DUP2 MSTORE PUSH1 0x40 SWAP1 KECCAK256 DUP1 SLOAD PUSH1 0x1 DUP3 ADD SLOAD PUSH1 0x2 DUP4 ADD SLOAD PUSH1 0x3 SWAP1 SWAP4 ADD SLOAD SWAP2 SWAP3 PUSH20 0xFFFFFFFFFFFFFFFFFFFFFFFFFFFFFFFFFFFFFFFF SWAP1 SWAP2 AND SWAP2 DUP5 JUMP JUMPDEST PUSH1 0x40 DUP1 MLOAD SWAP5 DUP6 MSTORE PUSH20 0xFFFFFFFFFFFFFFFFFFFFFFFFFFFFFFFFFFFFFFFF SWAP1 SWAP4 AND PUSH1 0x20 DUP6 ADD MSTORE SWAP2 DUP4 ADD MSTORE PUSH1 0x60 DUP3 ADD MSTORE PUSH1 0x80 ADD PUSH1 0x40 MLOAD DUP1 SWAP2 SUB SWAP1 RETURN JUMPDEST CALLVALUE DUP1 ISZERO PUSH2 0xD7 JUMPI PUSH1 0x0 DUP1 REVERT JUMPDEST POP JUMPDEST STOP JUMPDEST PUSH2 0xD9 PUSH2 0xE9 CALLDATASIZE PUSH1 0x4 PUSH2 0x1B3 JUMP JUMPDEST DUP1 PUSH3 0x15180 EQ DUP1 PUSH2 0xFC JUMPI POP DUP1 PUSH3 0x93A80 EQ JUMPDEST DUP1 PUSH2 0x109 JUMPI POP DUP1 PUSH3 0x278D00 EQ JUMPDEST PUSH2 0x173 JUMPI PUSH1 0x40 MLOAD PUSH32 0x8C379A000000000000000000000000000000000000000000000000000000000 DUP2 MSTORE PUSH1 0x20 PUSH1 0x4 DUP3 ADD MSTORE PUSH1 0x14 PUSH1 0x24 DUP3 ADD MSTORE PUSH32 0x6E6F7420612076616C6964206475726174696F6E000000000000000000000000 PUSH1 0x44 DUP3 ADD MSTORE PUSH1 0x64 ADD PUSH1 0x40 MLOAD DUP1 SWAP2 SUB SWAP1 REVERT JUMPDEST POP JUMP JUMPDEST PUSH1 0x0 PUSH1 0x20 DUP3 DUP5 SUB SLT ISZERO PUSH2 0x188 JUMPI PUSH1 0x0 DUP1 REVERT JUMPDEST DUP2 CALLDATALOAD PUSH20 0xFFFFFFFFFFFFFFFFFFFFFFFFFFFFFFFFFFFFFFFF DUP2 AND DUP2 EQ PUSH2 0x1AC JUMPI PUSH1 0x0 DUP1 REVERT JUMPDEST SWAP4 SWAP3 POP POP POP JUMP JUMPDEST PUSH1 0x0 PUSH1 0x20 DUP3 DUP5 SUB SLT ISZERO PUSH2 0x1C5 JUMPI PUSH1 0x0 DUP1 REVERT JUMPDEST POP CALLDATALOAD SWAP2 SWAP1 POP JUMP INVALID LOG2 PUSH5 0x6970667358 0x22 SLT KECCAK256 PUSH22 0x25FB557713E7256A38AE9AFB3FADBEE5F8E1A611D75C MOD 0x4D SLOAD 0xC3 0xEB 0x1F 0xD3 SLOAD 0xF PUSH5 0x736F6C6343 STOP ADDMOD 0xF STOP CALLER "},"methodIdentifiers":{"stakeEther(uint256)":"e4f90841","stakes(address)":"16934fc4","withdrawEther()":"7362377b"}}}}}