{"contracts/Require.sol":{"Require":{"abi":[{"inputs":[],"name":"purchaseToken","outputs":[],"stateMutability":"payable","type":"function"}],"evm":{"bytecode":{"linkReferences":{},"object":"608060405234801561001057600080fd5b5061012d806100206000396000f3fe608060405260043610601c5760003560e01c8063a95c4d62146021575b600080fd5b60276029565b005b3467016345785d8a0000148015604a5750603c6000546047919060b9565b42115b60b3576040517f08c379a000000000000000000000000000000000000000000000000000000000815260206004820152600f60248201527f63616e6e6f742070757263686173650000000000000000000000000000000000604482015260640160405180910390fd5b42600055565b6000821982111560f2577f4e487b7100000000000000000000000000000000000000000000000000000000600052601160045260246000fd5b50019056fea264697066735822122009982ae24ce234a2b602831823a888263147f2aa0d5f999747ee23791f6ab90864736f6c634300080f0033","opcodes":"PUSH1 0x80 PUSH1 0x40 MSTORE CALLVALUE DUP1 ISZERO PUSH2 0x10 JUMPI PUSH1 0x0 DUP1 REVERT JUMPDEST POP PUSH2 0x12D DUP1 PUSH2 0x20 PUSH1 0x0 CODECOPY PUSH1 0x0 RETURN INVALID PUSH1 0x80 PUSH1 0x40 MSTORE PUSH1 0x4 CALLDATASIZE LT PUSH1 0x1C JUMPI PUSH1 0x0 CALLDATALOAD PUSH1 0xE0 SHR DUP1 PUSH4 0xA95C4D62 EQ PUSH1 0x21 JUMPI JUMPDEST PUSH1 0x0 DUP1 REVERT JUMPDEST PUSH1 0x27 PUSH1 0x29 JUMP JUMPDEST STOP JUMPDEST CALLVALUE PUSH8 0x16345785D8A0000 EQ DUP1 ISZERO PUSH1 0x4A JUMPI POP PUSH1 0x3C PUSH1 0x0 SLOAD PUSH1 0x47 SWAP2 SWAP1 PUSH1 0xB9 JUMP JUMPDEST TIMESTAMP GT JUMPDEST PUSH1 0xB3 JUMPI PUSH1 0x40 MLOAD PUSH32 0x8C379A000000000000000000000000000000000000000000000000000000000 DUP2 MSTORE PUSH1 0x20 PUSH1 0x4 DUP3 ADD MSTORE PUSH1 0xF PUSH1 0x24 DUP3 ADD MSTORE PUSH32 0x63616E6E6F742070757263686173650000000000000000000000000000000000 PUSH1 0x44 DUP3 ADD MSTORE PUSH1 0x64 ADD PUSH1 0x40 MLOAD DUP1 SWAP2 SUB SWAP1 REVERT JUMPDEST TIMESTAMP PUSH1 0x0 SSTORE JUMP JUMPDEST PUSH1 0x0 DUP3 NOT DUP3 GT ISZERO PUSH1 0xF2 JUMPI PUSH32 0x4E487B7100000000000000000000000000000000000000000000000000000000 PUSH1 0x0 MSTORE PUSH1 0x11 PUSH1 0x4 MSTORE PUSH1 0x24 PUSH1 0x0 REVERT JUMPDEST POP ADD SWAP1 JUMP INVALID LOG2 PUSH5 0x6970667358 0x22 SLT KECCAK256 MULMOD SWAP9 0x2A 0xE2 0x4C 0xE2 CALLVALUE LOG2 0xB6 MUL DUP4 XOR 0x23 0xA8 DUP9 0x26 BALANCE SELFBALANCE CALLCODE 0xAA 0xD 0x5F SWAP10 SWAP8 SELFBALANCE 0xEE 0x23 PUSH26 0x1F6AB90864736F6C634300080F00330000000000000000000000 "},"methodIdentifiers":{"purchaseToken()":"a95c4d62"}}}}}