{"contracts/SetToOne.sol":{"SetToOne":{"abi":[{"inputs":[],"name":"foobar","outputs":[],"stateMutability":"nonpayable","type":"function"},{"inputs":[],"name":"one","outputs":[{"internalType":"uint8","name":"","type":"uint8"}],"stateMutability":"view","type":"function"}],"evm":{"bytecode":{"linkReferences":{},"object":"608060405234801561001057600080fd5b5060c08061001f6000396000f3fe6080604052348015600f57600080fd5b506004361060325760003560e01c806305df75db146037578063901717d1146068575b600080fd5b6066600080547fffffffffffffffffffffffffffffffffffffffffffffffffffffffffffffff00166001179055565b005b60005460749060ff1681565b60405160ff909116815260200160405180910390f3fea2646970667358221220d6b6e7d84413c362a862e4f522c33f8a166f89806239e3ccba88a5a324c1c70464736f6c634300080f0033","opcodes":"PUSH1 0x80 PUSH1 0x40 MSTORE CALLVALUE DUP1 ISZERO PUSH2 0x10 JUMPI PUSH1 0x0 DUP1 REVERT JUMPDEST POP PUSH1 0xC0 DUP1 PUSH2 0x1F PUSH1 0x0 CODECOPY PUSH1 0x0 RETURN INVALID PUSH1 0x80 PUSH1 0x40 MSTORE CALLVALUE DUP1 ISZERO PUSH1 0xF JUMPI PUSH1 0x0 DUP1 REVERT JUMPDEST POP PUSH1 0x4 CALLDATASIZE LT PUSH1 0x32 JUMPI PUSH1 0x0 CALLDATALOAD PUSH1 0xE0 SHR DUP1 PUSH4 0x5DF75DB EQ PUSH1 0x37 JUMPI DUP1 PUSH4 0x901717D1 EQ PUSH1 0x68 JUMPI JUMPDEST PUSH1 0x0 DUP1 REVERT JUMPDEST PUSH1 0x66 PUSH1 0x0 DUP1 SLOAD PUSH32 0xFFFFFFFFFFFFFFFFFFFFFFFFFFFFFFFFFFFFFFFFFFFFFFFFFFFFFFFFFFFFFF00 AND PUSH1 0x1 OR SWAP1 SSTORE JUMP JUMPDEST STOP JUMPDEST PUSH1 0x0 SLOAD PUSH1 0x74 SWAP1 PUSH1 0xFF AND DUP2 JUMP JUMPDEST PUSH1 0x40 MLOAD PUSH1 0xFF SWAP1 SWAP2 AND DUP2 MSTORE PUSH1 0x20 ADD PUSH1 0x40 MLOAD DUP1 SWAP2 SUB SWAP1 RETURN INVALID LOG2 PUSH5 0x6970667358 0x22 SLT KECCAK256 0xD6 0xB6 0xE7 0xD8 DIFFICULTY SGT 0xC3 PUSH3 0xA862E4 CREATE2 0x22 0xC3 EXTCODEHASH DUP11 AND PUSH16 0x89806239E3CCBA88A5A324C1C7046473 PUSH16 0x6C634300080F00330000000000000000 "},"methodIdentifiers":{"foobar()":"05df75db","one()":"901717d1"}}}}}