{"contracts/contracts_optimized/ArraySum.sol":{"OptimizedArraySum":{"abi":[{"inputs":[],"name":"getArraySum","outputs":[{"internalType":"uint256","name":"","type":"uint256"}],"stateMutability":"view","type":"function"},{"inputs":[{"internalType":"uint256[]","name":"_array","type":"uint256[]"}],"name":"setArray","outputs":[],"stateMutability":"nonpayable","type":"function"}],"evm":{"bytecode":{"linkReferences":{},"object":"608060405234801561001057600080fd5b50610393806100206000396000f3fe608060405234801561001057600080fd5b50600436106100365760003560e01c806308d716421461003b57806353ed649e14610050575b600080fd5b61004e6100493660046101d3565b61006a565b005b6100586100f1565b60405190815260200160405180910390f35b600a815111156100da576040517f08c379a000000000000000000000000000000000000000000000000000000000815260206004820152600860248201527f746f6f206c6f6e67000000000000000000000000000000000000000000000000604482015260640160405180910390fd5b80516100ed906000906020840190610144565b5050565b60008060005b60005481101561013e5760008181548110610114576101146102af565b90600052602060002001548261012a919061030d565b91508061013681610325565b9150506100f7565b50919050565b82805482825590600052602060002090810192821561017f579160200282015b8281111561017f578251825591602001919060010190610164565b5061018b92915061018f565b5090565b5b8082111561018b5760008155600101610190565b7f4e487b7100000000000000000000000000000000000000000000000000000000600052604160045260246000fd5b600060208083850312156101e657600080fd5b823567ffffffffffffffff808211156101fe57600080fd5b818501915085601f83011261021257600080fd5b813581811115610224576102246101a4565b8060051b6040517fffffffffffffffffffffffffffffffffffffffffffffffffffffffffffffffe0603f83011681018181108582111715610267576102676101a4565b60405291825284820192508381018501918883111561028557600080fd5b938501935b828510156102a35784358452938501939285019261028a565b98975050505050505050565b7f4e487b7100000000000000000000000000000000000000000000000000000000600052603260045260246000fd5b7f4e487b7100000000000000000000000000000000000000000000000000000000600052601160045260246000fd5b60008219821115610320576103206102de565b500190565b60007fffffffffffffffffffffffffffffffffffffffffffffffffffffffffffffffff8203610356576103566102de565b506001019056fea264697066735822122001ac5ea72d18f971adaf1d81b5c6da15f46669cf7a604d22a8cb12763037bd2e64736f6c634300080f0033","opcodes":"PUSH1 0x80 PUSH1 0x40 MSTORE CALLVALUE DUP1 ISZERO PUSH2 0x10 JUMPI PUSH1 0x0 DUP1 REVERT JUMPDEST POP PUSH2 0x393 DUP1 PUSH2 0x20 PUSH1 0x0 CODECOPY PUSH1 0x0 RETURN INVALID PUSH1 0x80 PUSH1 0x40 MSTORE CALLVALUE DUP1 ISZERO PUSH2 0x10 JUMPI PUSH1 0x0 DUP1 REVERT JUMPDEST POP PUSH1 0x4 CALLDATASIZE LT PUSH2 0x36 JUMPI PUSH1 0x0 CALLDATALOAD PUSH1 0xE0 SHR DUP1 PUSH4 0x8D71642 EQ PUSH2 0x3B JUMPI DUP1 PUSH4 0x53ED649E EQ PUSH2 0x50 JUMPI JUMPDEST PUSH1 0x0 DUP1 REVERT JUMPDEST PUSH2 0x4E PUSH2 0x49 CALLDATASIZE PUSH1 0x4 PUSH2 0x1D3 JUMP JUMPDEST PUSH2 0x6A JUMP JUMPDEST STOP JUMPDEST PUSH2 0x58 PUSH2 0xF1 JUMP JUMPDEST PUSH1 0x40 MLOAD SWAP1 DUP2 MSTORE PUSH1 0x20 ADD PUSH1 0x40 MLOAD DUP1 SWAP2 SUB SWAP1 RETURN JUMPDEST PUSH1 0xA DUP2 MLOAD GT ISZERO PUSH2 0xDA JUMPI PUSH1 0x40 MLOAD PUSH32 0x8C379A000000000000000000000000000000000000000000000000000000000 DUP2 MSTORE PUSH1 0x20 PUSH1 0x4 DUP3 ADD MSTORE PUSH1 0x8 PUSH1 0x24 DUP3 ADD MSTORE PUSH32 0x746F6F206C6F6E67000000000000000000000000000000000000000000000000 PUSH1 0x44 DUP3 ADD MSTORE PUSH1 0x64 ADD PUSH1 0x40 MLOAD DUP1 SWAP2 SUB SWAP1 REVERT JUMPDEST DUP1 MLOAD PUSH2 0xED SWAP1 PUSH1 0x0 SWAP1 PUSH1 0x20 DUP5 ADD SWAP1 PUSH2 0x144 JUMP JUMPDEST POP POP JUMP JUMPDEST PUSH1 0x0 DUP1 PUSH1 0x0 JUMPDEST PUSH1 0x0 SLOAD DUP2 LT ISZERO PUSH2 0x13E JUMPI PUSH1 0x0 DUP2 DUP2 SLOAD DUP2 LT PUSH2 0x114 JUMPI PUSH2 0x114 PUSH2 0x2AF JUMP JUMPDEST SWAP1 PUSH1 0x0 MSTORE PUSH1 0x20 PUSH1 0x0 KECCAK256 ADD SLOAD DUP3 PUSH2 0x12A SWAP2 SWAP1 PUSH2 0x30D JUMP JUMPDEST SWAP2 POP DUP1 PUSH2 0x136 DUP2 PUSH2 0x325 JUMP JUMPDEST SWAP2 POP POP PUSH2 0xF7 JUMP JUMPDEST POP SWAP2 SWAP1 POP JUMP JUMPDEST DUP3 DUP1 SLOAD DUP3 DUP3 SSTORE SWAP1 PUSH1 0x0 MSTORE PUSH1 0x20 PUSH1 0x0 KECCAK256 SWAP1 DUP2 ADD SWAP3 DUP3 ISZERO PUSH2 0x17F JUMPI SWAP2 PUSH1 0x20 MUL DUP3 ADD JUMPDEST DUP3 DUP2 GT ISZERO PUSH2 0x17F JUMPI DUP3 MLOAD DUP3 SSTORE SWAP2 PUSH1 0x20 ADD SWAP2 SWAP1 PUSH1 0x1 ADD SWAP1 PUSH2 0x164 JUMP JUMPDEST POP PUSH2 0x18B SWAP3 SWAP2 POP PUSH2 0x18F JUMP JUMPDEST POP SWAP1 JUMP JUMPDEST JUMPDEST DUP1 DUP3 GT ISZERO PUSH2 0x18B JUMPI PUSH1 0x0 DUP2 SSTORE PUSH1 0x1 ADD PUSH2 0x190 JUMP JUMPDEST PUSH32 0x4E487B7100000000000000000000000000000000000000000000000000000000 PUSH1 0x0 MSTORE PUSH1 0x41 PUSH1 0x4 MSTORE PUSH1 0x24 PUSH1 0x0 REVERT JUMPDEST PUSH1 0x0 PUSH1 0x20 DUP1 DUP4 DUP6 SUB SLT ISZERO PUSH2 0x1E6 JUMPI PUSH1 0x0 DUP1 REVERT JUMPDEST DUP3 CALLDATALOAD PUSH8 0xFFFFFFFFFFFFFFFF DUP1 DUP3 GT ISZERO PUSH2 0x1FE JUMPI PUSH1 0x0 DUP1 REVERT JUMPDEST DUP2 DUP6 ADD SWAP2 POP DUP6 PUSH1 0x1F DUP4 ADD SLT PUSH2 0x212 JUMPI PUSH1 0x0 DUP1 REVERT JUMPDEST DUP2 CALLDATALOAD DUP2 DUP2 GT ISZERO PUSH2 0x224 JUMPI PUSH2 0x224 PUSH2 0x1A4 JUMP JUMPDEST DUP1 PUSH1 0x5 SHL PUSH1 0x40 MLOAD PUSH32 0xFFFFFFFFFFFFFFFFFFFFFFFFFFFFFFFFFFFFFFFFFFFFFFFFFFFFFFFFFFFFFFE0 PUSH1 0x3F DUP4 ADD AND DUP2 ADD DUP2 DUP2 LT DUP6 DUP3 GT OR ISZERO PUSH2 0x267 JUMPI PUSH2 0x267 PUSH2 0x1A4 JUMP JUMPDEST PUSH1 0x40 MSTORE SWAP2 DUP3 MSTORE DUP5 DUP3 ADD SWAP3 POP DUP4 DUP2 ADD DUP6 ADD SWAP2 DUP9 DUP4 GT ISZERO PUSH2 0x285 JUMPI PUSH1 0x0 DUP1 REVERT JUMPDEST SWAP4 DUP6 ADD SWAP4 JUMPDEST DUP3 DUP6 LT ISZERO PUSH2 0x2A3 JUMPI DUP5 CALLDATALOAD DUP5 MSTORE SWAP4 DUP6 ADD SWAP4 SWAP3 DUP6 ADD SWAP3 PUSH2 0x28A JUMP JUMPDEST SWAP9 SWAP8 POP POP POP POP POP POP POP POP JUMP JUMPDEST PUSH32 0x4E487B7100000000000000000000000000000000000000000000000000000000 PUSH1 0x0 MSTORE PUSH1 0x32 PUSH1 0x4 MSTORE PUSH1 0x24 PUSH1 0x0 REVERT JUMPDEST PUSH32 0x4E487B7100000000000000000000000000000000000000000000000000000000 PUSH1 0x0 MSTORE PUSH1 0x11 PUSH1 0x4 MSTORE PUSH1 0x24 PUSH1 0x0 REVERT JUMPDEST PUSH1 0x0 DUP3 NOT DUP3 GT ISZERO PUSH2 0x320 JUMPI PUSH2 0x320 PUSH2 0x2DE JUMP JUMPDEST POP ADD SWAP1 JUMP JUMPDEST PUSH1 0x0 PUSH32 0xFFFFFFFFFFFFFFFFFFFFFFFFFFFFFFFFFFFFFFFFFFFFFFFFFFFFFFFFFFFFFFFF DUP3 SUB PUSH2 0x356 JUMPI PUSH2 0x356 PUSH2 0x2DE JUMP JUMPDEST POP PUSH1 0x1 ADD SWAP1 JUMP INVALID LOG2 PUSH5 0x6970667358 0x22 SLT KECCAK256 ADD 0xAC 0x5E 0xA7 0x2D XOR 0xF9 PUSH18 0xADAF1D81B5C6DA15F46669CF7A604D22A8CB SLT PUSH23 0x3037BD2E64736F6C634300080F00330000000000000000 "},"methodIdentifiers":{"getArraySum()":"53ed649e","setArray(uint256[])":"08d71642"}}}}}