{
  "_format": "hh-sol-artifact-1",
  "contractName": "OptimizedArraySort",
  "sourceName": "contracts/contracts_optimized/ArraySort.sol",
  "abi": [
    {
      "inputs": [
        {
          "internalType": "uint256[]",
          "name": "data",
          "type": "uint256[]"
        }
      ],
      "name": "sortArray",
      "outputs": [
        {
          "internalType": "uint256[]",
          "name": "",
          "type": "uint256[]"
        }
      ],
      "stateMutability": "pure",
      "type": "function"
    }
  ],
  "bytecode": "0x608060405234801561001057600080fd5b506103c8806100206000396000f3fe608060405234801561001057600080fd5b506004361061002b5760003560e01c8063e379976e14610030575b600080fd5b61004361003e3660046101fc565b610059565b6040516100509190610271565b60405180910390f35b60608160008167ffffffffffffffff811115610077576100776102b5565b6040519080825280602002602001820160405280156100a0578160200160208202803683370190505b50905060005b81518110156100f7578585828181106100c1576100c16102e4565b905060200201358282815181106100da576100da6102e4565b6020908102919091010152806100ef81610342565b9150506100a6565b5060005b81518110156101f357600061011182600161037a565b90505b82518110156101e05782818151811061012f5761012f6102e4565b6020026020010151838381518110610149576101496102e4565b602002602001015111156101ce57600083838151811061016b5761016b6102e4565b60200260200101519050838281518110610187576101876102e4565b60200260200101518484815181106101a1576101a16102e4565b602002602001018181525050808483815181106101c0576101c06102e4565b602002602001018181525050505b806101d881610342565b915050610114565b50806101eb81610342565b9150506100fb565b50949350505050565b6000806020838503121561020f57600080fd5b823567ffffffffffffffff8082111561022757600080fd5b818501915085601f83011261023b57600080fd5b81358181111561024a57600080fd5b8660208260051b850101111561025f57600080fd5b60209290920196919550909350505050565b6020808252825182820181905260009190848201906040850190845b818110156102a95783518352928401929184019160010161028d565b50909695505050505050565b7f4e487b7100000000000000000000000000000000000000000000000000000000600052604160045260246000fd5b7f4e487b7100000000000000000000000000000000000000000000000000000000600052603260045260246000fd5b7f4e487b7100000000000000000000000000000000000000000000000000000000600052601160045260246000fd5b60007fffffffffffffffffffffffffffffffffffffffffffffffffffffffffffffffff820361037357610373610313565b5060010190565b6000821982111561038d5761038d610313565b50019056fea2646970667358221220adaabfb585040182decfd25085df06edc2e9bec3b8b06083fcb1ca5b66e2e20364736f6c634300080f0033",
  "linkReferences": {},
  "deployedLinkReferences": {}
}