{
  "_format": "hh-sol-artifact-1",
  "contractName": "OptimizedArraySum",
  "sourceName": "contracts/contracts_optimized/ArraySum.sol",
  "abi": [
    {
      "inputs": [],
      "name": "getArraySum",
      "outputs": [
        {
          "internalType": "uint256",
          "name": "",
          "type": "uint256"
        }
      ],
      "stateMutability": "view",
      "type": "function"
    },
    {
      "inputs": [
        {
          "internalType": "uint256[]",
          "name": "_array",
          "type": "uint256[]"
        }
      ],
      "name": "setArray",
      "outputs": [],
      "stateMutability": "nonpayable",
      "type": "function"
    }
  ],
  "bytecode": "0x608060405234801561001057600080fd5b50610393806100206000396000f3fe608060405234801561001057600080fd5b50600436106100365760003560e01c806308d716421461003b57806353ed649e14610050575b600080fd5b61004e6100493660046101d3565b61006a565b005b6100586100f1565b60405190815260200160405180910390f35b600a815111156100da576040517f08c379a000000000000000000000000000000000000000000000000000000000815260206004820152600860248201527f746f6f206c6f6e67000000000000000000000000000000000000000000000000604482015260640160405180910390fd5b80516100ed906000906020840190610144565b5050565b60008060005b60005481101561013e5760008181548110610114576101146102af565b90600052602060002001548261012a919061030d565b91508061013681610325565b9150506100f7565b50919050565b82805482825590600052602060002090810192821561017f579160200282015b8281111561017f578251825591602001919060010190610164565b5061018b92915061018f565b5090565b5b8082111561018b5760008155600101610190565b7f4e487b7100000000000000000000000000000000000000000000000000000000600052604160045260246000fd5b600060208083850312156101e657600080fd5b823567ffffffffffffffff808211156101fe57600080fd5b818501915085601f83011261021257600080fd5b813581811115610224576102246101a4565b8060051b6040517fffffffffffffffffffffffffffffffffffffffffffffffffffffffffffffffe0603f83011681018181108582111715610267576102676101a4565b60405291825284820192508381018501918883111561028557600080fd5b938501935b828510156102a35784358452938501939285019261028a565b98975050505050505050565b7f4e487b7100000000000000000000000000000000000000000000000000000000600052603260045260246000fd5b7f4e487b7100000000000000000000000000000000000000000000000000000000600052601160045260246000fd5b60008219821115610320576103206102de565b500190565b60007fffffffffffffffffffffffffffffffffffffffffffffffffffffffffffffffff8203610356576103566102de565b506001019056fea264697066735822122001ac5ea72d18f971adaf1d81b5c6da15f46669cf7a604d22a8cb12763037bd2e64736f6c634300080f0033",
  "linkReferences": {},
  "deployedLinkReferences": {}
}